:020000040800F2
:1000000000000220F54D0008F1480008F348000800
:10001000F5480008F7480008F9480008000000000B
:10002000000000000000000000000000FB48000885
:10003000FD48000800000000FF48000801490008D2
:10004000454E0008454E0008454E0008454E000844
:10005000454E0008454E0008454E0008454E000834
:10006000454E0008454E0008454E0008454E000824
:10007000454E0008454E0008454E0008454E000814
:10008000454E0008454E0008454E0008454E000804
:10009000454E0008454E0008454E0008454E0008F4
:1000A000454E0008454E0008454E0008454E0008E4
:1000B000454E0008454E0008454E0008454E0008D4
:1000C000454E0008454E0008454E0008454E0008C4
:1000D000454E0008454E0008454E0008454E0008B4
:1000E000454E0008454E000800000000454E00083F
:1000F000454E0008454E0008454E0008454E000894
:10010000454E0008454E0008454E0008454E000883
:10011000454E0008454E0008454E0008454E000873
:10012000454E0008454E0008454E0008454E000863
:10013000454E0008454E0008454E0008454E000853
:1001400000000000000000000000000000000000AF
:10015000454E0008454E0008454E0008454E000833
:10016000454E0008454E0008454E0008454E000823
:10017000454E0008454E0008454E000800000000AE
:10018000454E0008454E0008454E0008454E000803
:10019000454E0008454E0008454E0008454E0008F3
:1001A000454E0008454E0008454E0008454E0008E3
:1001B000454E0008454E0008454E0008454E0008D3
:1001C000454E0008454E0008454E0008454E0008C3
:1001D000454E000805490008454E0008454E0008F8
:1001E000454E0008454E0008454E0008454E0008A3
:1001F000454E0008454E0008454E0008454E000893
:10020000454E0008454E0008454E0008454E000882
:10021000454E0008454E0008454E0008454E000872
:10022000454E0008454E0008454E000800000000FD
:10023000454E0008454E000800000000454E0008ED
:10024000454E0008454E0008454E0008454E000842
:10025000454E0008454E0008454E0008454E000832
:10026000454E0008454E0008454E0008454E000822
:10027000454E0008454E0008454E000800000000AD
:10028000454E000800000000454E00080000000038
:0802900000000000454E0008CB
:1002980010B5054C237833B9044B13B10448AFF3B8
:1002A80000800123237010BD880200200000000098
:1002B8005850000808B5034B1BB103490348AFF376
:1002C800008008BD000000008C0200205850000883
:1002D80053B94AB9002908BF00281CBF4FF0FF31A5
:1002E8004FF0FF3000F07AB9ADF1080C6DE904CE9B
:1002F80000F006F8DDF804E0DDE9022304B07047F9
:100308002DE9F0478C460D460446089E002B51D136
:100318008A4217466DD9B2FA82FEBEF1000F0BD0A1
:10032800CEF1200C01FA0EF520FA0CFC02FA0EF7B9
:100338004CEA050C00FA0EF44FEA174A250CBCFBF0
:10034800FAF81FFA87F90AFB18CC45EA0C4508FBAE
:1003580009F3AB420AD9ED1908F1FF3280F0238185
:10036800AB4240F22081A8F102083D44ED1AA4B244
:10037800B5FBFAF00AFB105544EA054400FB09F9FD
:10038800A14509D9E41900F1FF3380F00A81A1459C
:1003980040F2078102383C44A4EB090440EA0840D3
:1003A8000021002E61D024FA0EF40023346073601B
:1003B800BDE8F0878B4207D9002E54D0002186E88B
:1003C80021000846BDE8F087B3FA83F1002940F020
:1003D8008E80AB4202D3824200F2FA80841A65EB27
:1003E80003050120AC46002E3FD086E81010BDE87A
:1003F800F08712B90127B7FBF2F7B7FA87FEBEF10B
:10040800000F34D1EB1B3A0C1FFA87FC0121B3FB18
:10041800F2F8250C02FB183345EA03450CFB08F3F8
:10042800AB4207D9ED1908F1FF3002D2AB4200F216
:10043800D1808046ED1AA3B2B5FBF2F002FB10554D
:1004480043EA05440CFB00FCA44507D9E41900F174
:10045800FF3302D2A44500F2B8801846A4EB0C047E
:1004680040EA08409DE731463046BDE8F087CEF1C6
:10047800200405FA0EF307FA0EF720FA04F83A0CEE
:1004880025FA04F448EA0308B4FBF2F14FEA1845E8
:1004980002FB11441FFA87FC45EA044501FB0CF3F3
:1004A800AB4200FA0EF409D9ED1901F1FF3080F0E2
:1004B8008A80AB4240F2878002393D44EB1A1FFA2A
:1004C80088F5B3FBF2F002FB103345EA034500FB65
:1004D8000CF3AB4207D9ED1900F1FF386FD2AB42EC
:1004E8006DD902383D44EB1A40EA01418FE7C1F16A
:1004F800200722FA07F88B4005FA01F448EA0303BB
:1005080020FA07FE4FEA134CFD404EEA040EB5FBF5
:10051800FCF94FEA1E440CFB19551FFA83F844EA0C
:10052800054509FB08F4AC4202FA01F200FA01FAA7
:1005380008D9ED1809F1FF3043D2AC4241D9A9F1ED
:1005480002091D442D1B1FFA8EFEB5FBFCF00CFBA7
:1005580010554EEA054400FB08F8A04507D9E418F1
:1005680000F1FF3529D2A04527D902381C4440EABA
:100578000940A4EB0804A0FB02894C45C6464D4639
:1005880015D312D056B1BAEB0E0364EB050404FA86
:1005980007F7CB401F43CC40376074600021BDE8AB
:1005A800F0871846F8E69046E0E6C245EAD2B8EB8E
:1005B800020E69EB03050138E4E72846D7E7404611
:1005C80091E78146BEE7014678E702383C4445E7B3
:1005D800084608E7A8F102083D442BE7704700BF2A
:1005E80038B50E4B05460E4A18784FF47A73B3FBAC
:1005F800F0F31068B0FBF3F000F0ACF8044658B91B
:100608000F2D09D8024629464FF0FF3000F05CF85C
:10061800044B20461D6038BD012038BD0000002075
:10062800180100200400002010B5032000F03AF85B
:100638000020FFF7D5FF044618B904F043F9204617
:1006480010BD0124FBE70000034A044B11681B7826
:100658000B441360704700BFA40200200000002074
:10066800014B1868704700BFA402002038B5044643
:10067800FFF7F6FF0546631C1EBF044B1B78E41802
:10068800FFF7EEFF401B8442FAD838BD0000002077
:10069800034A536823F4600318435060704700BF4F
:1006A80000040058074A0002D36800F4E06023F40D
:1006B800E0631B041B0C43F0BF6343F400330343A4
:1006C800D360704700ED00E0194B30B5DC68C4F327
:1006D8000224C4F10703251D042B28BF0423062D7B
:1006E8004FF001058CBF033C002405FA03F30028F2
:1006F80003F1FF3301EA030101FA04F105FA04F4F6
:1007080004F1FF3402EA040242EA01024FEA02124B
:1007180007DB00F16040D2B200F5614080F80023A9
:1007280030BD00F00F00D2B2024B1A5430BD00BFEA
:1007380000ED00E014ED00E0002808DB4209012389
:1007480000F01F0003FA00F0014B43F82200704745
:1007580000E100E00138B0F1807F0AD2064BF021B9
:10076800064A5860002082F82310072298601A6011
:1007780070470120704700BF10E000E000ED00E086
:100788008B680A6891F804C01A430B7C002B2DE98A
:10079800F04F08BF4FF4002385B018BF002391F82D
:1007A8000CE04F7B00934B7C8E7B002BCD7B8C7CAD
:1007B8000CBF4FF40033002391F81C9001934B6950
:1007C80091F81DB01A438B6913438A7F002A0CBF26
:1007D8004FF4806200220292CA7F039291F820208F
:1007E800002A0268486AD2F800A008BF4FF480784F
:1007F80043EA0003C86A2AF07F4A18BF4FF000088E
:10080800034303982AF47B0A2AF4FE4A2AF07C0A56
:1008180043EA0A0343EACC6343EACE5343EA8753E5
:1008280043EA465343EA055343EA044343EA093398
:1008380043EACB2391F828B043EA4023009843EADF
:100848000B130343019803430298034343EA080345
:100858001360CE6B91F8323091F83870002B5368E2
:1008680091F8305023F07C5391F831400CBF4FF48D
:100878008030002023F4EF2323F4FF6323F00703E1
:1008880043EA46634E6B33438E6C43EA076343EA9D
:1008980085430D6D43EA444391F854400343486C43
:1008A8005360D36823F4877323F00103034391F85B
:1008B800400043EA0023D36091F84C30002B136FBB
:1008C80023F0F2030CBF802000201B041B0C43EA1A
:1008D80006432B43CD6D43EA440391F8614003433B
:1008E8001367D2F8900091F8563020F003000343C4
:1008F80091F8550043EA4003886DC2F89030D2F869
:10090800003D23F072030343C2F8003D91F86030C4
:1009180091F86210002BD2F8303D23F07B030CBF16
:10092800402000202B4343EA041343EAC103034356
:10093800C2F8303D05B0BDE8F08F0000026802F54E
:100948008050036823F4F04330B523F002030C68A9
:100958000D79234341F2040403600B7B1059DB0338
:1009680020F4504043EA05338D6820F001002B4302
:10097800034302F588501351124B05684C7B2B40FA
:1009880043EA04430C6A234341F2041403604B7F97
:10099800087D1B03155943EA0013086903430A48F5
:1009A8002840034341F20810135113580C7F23F0D9
:1009B8000043896923F47C1343EAC4730B4313503F
:1009C80030BD00BF00C0FEFFEFEFC0FF38B50368C1
:1009D8000546D3F8004201F0F7FA124B124A24F404
:1009E80070640344934205D844F400742B68C3F838
:1009F800004238BD0D4B0E4A0344934202D844F4DA
:100A08004074F3E70B4B0C4A03449342EED90B4B6B
:100A18000B4A0344934294BF44F4807444F48064C2
:100A2800E4E700BF00D3CEFEBFE1E40040F1E9FDFA
:100A38003F787D0100796CFCFF596202001F0AFAB9
:100A48007FF0FA0270B50546A4B0002800F0C08017
:100A580090F851300BB903F0A1FD2323287A85F8CB
:100A68005130964BD3F8F42042F00202C3F8F42038
:100A7800D3F8F43003F002030193019B002840F0FF
:100A88009880FFF705FE2B6803F580531A6842F03B
:100A980001021A60FFF7E4FD06462B6803F5805350
:100AA8001C6814F0010440F087802846FFF78EFF89
:100AB8002E6801F089FA824B0BA914948DF84940ED
:100AC8008DF84B408DF854408DF864401A948DF899
:100AD8008D408DF88E408DF838400D948DF83E404D
:100AE8008DF848401F941D9416948DF86C408DF82D
:100AF80082408DF85D40B0FBF3F04FF400530138AD
:100B080011934FF4C363C6F8DC0001261893202321
:100B180028468DF83B6022934FF040538DF83060A3
:100B28000B934FF480438DF85E60109302238DF889
:100B38003A608DF88C608DF83D608DF84A608DF8CC
:100B48004C608DF8394021938DF880408DF88140B4
:100B58008DF85C408DF83C601C948DF87860FFF748
:100B68000FFE4FF4001302A928468DF80C60089375
:100B780006934FF4067304960A9302948DF8244062
:100B88008DF815408DF814408DF81C408DF82540DF
:100B9800FFF7D4FE2968686901F58852136823F4C1
:100BA800E01343F40023136010F0030212D06E65C3
:100BB8000BE04FF4000064E7FFF752FD801BB0F52F
:100BC800FA7F7FF66AAF04236B65E02385F851301E
:100BD800012071E041F208140B5923F4FF4323F07C
:100BE8007E0343EA4003E8680B5100F1600605F113
:100BF800180403461A705A709A70DA701A715A718A
:100C08009A71DA711A725A729A72DA721A735A737C
:100C18009A73DA7344F8043B1833B342EAD1AA62F0
:100C280041F22C1303220024CA5041F214132A69FA
:100C3800C85001F5895302F16006186005F12C00CF
:100C480013461C705C709C70DC701C715C719C712C
:100C5800DC711C725C729C72DC721C735C739C731A
:100C6800DC731C745C749C74DC741C755C759C75FA
:100C7800DC7540F8043B1833B342E2D1032041F25B
:100C88003013EC632C646C64EC64AC64C85041F2BF
:100C98001C130020CA50483241F22813CA506B680E
:100CA8009A88C1F800231B68C1F8043310236C65C7
:100CB80085F8513085F8523024B070BD0044025890
:100CC80040420F002DE9F04F0B6885B0DFF8C08176
:100CD8004FF0B04901930023DFF8B8C10127019A0A
:100CE8009F4007EA0205AF4240F0B7804A6822F009
:100CF8001006022E16D14FEAD30A03F0070B4FF065
:100D08000F0E00EB8A0A4FEA8B0BDAF820400EFA36
:100D18000BFE24EA0E0E0C6904FA0BF444EA0E04E6
:100D2800CAF820404FEA430A0324D0F800B002F082
:100D3800030E04FA0AF4013E0EFA0AFEE443012EF9
:100D48000BEA040B4EEA0B0EC0F800E010D88668D8
:100D580006EA040BCE6806FA0AFE4EEA0B0686601F
:100D6800466826EA0707C2F300169E4037434760E5
:100D7800C66834408E6806FA0AF63443C460D40064
:100D88006BD5D8F8F44023F0030603F003074FF0BF
:100D98000F0E44F0020406F1B046BF00C8F8F44054
:100DA80006F58066D8F8F44004F002040394039C26
:100DB8000EFA07F4D6F808A02AEA040E334CA0422B
:100DC80052D004F58064A04250D004F58064A0425B
:100DD8004ED004F58064A0424CD004F58064A04253
:100DE8004AD004F58064A04248D004F58064A0424B
:100DF80046D004F58064A04244D004F58064A04243
:100E080042D004F58064A04214BF0A240924BC40DF
:100E1800D70344EA0E04B4606FEA0506DCF8004024
:100E280054BF34402C439703CCF80040DCF804400E
:100E380054BF34402C43D7024FF0B047CCF804409D
:100E4800D9F8004054BF34402C4392023C607C687F
:100E580054BF34402C43C9F804400133102B7FF4AD
:100E68003DAF05B0BDE8F08F0024D0E70124CEE700
:100E78000224CCE70324CAE70424C8E70524C6E70C
:100E88000624C4E70724C2E70824C0E70000025884
:100E980000440258800000580AB10183704741831A
:100EA8007047F0B505468BB000286DD003232C465B
:100EB8006E462F1D80F8B93303F0F6FD54F8100B79
:100EC80002F049FB0FCC0FC60FCC0FC694E8030005
:100ED80005F1100486E8030097E80E00286801264B
:100EE80002F0F8FA0021286802F03BFB00212B46AB
:100EF8002A46084682F838101C3251840131567748
:100F08000F29D077506290621063F3D10022D5F890
:100F180000E0114683F8F82102F14000DA87013237
:100F28000EEB800083F8F9110F2A83F8FB11C3F840
:100F3800001203F11C03C3F8E811C3F8F011416073
:100F4800E8D10FCC6E460FC60FCC0FC694E803004D
:100F580086E80300704697E80E0002F019FB0123AB
:100F680085F8B933AB6A012B02D1284600F042FC60
:100F78006B6A012B02D1284600F04FFC286802F06A
:100F880011FE00200BB0F0BD0120FBE710B50446B0
:100F9800006802F0FBFD206802F0D7FA002010BDBF
:100FA8002DE9F04F076887B00446384602F034FE52
:100FB8000290002840F04581206802F0FFFD0028DB
:100FC80000F03F81206802F0F9FD850702D523680B
:100FD80002225A61206802F0F1FD10F400250CD0BD
:100FE80007F5306A206802F0EDFDA34680465646B4
:100FF8000025B8F1000F40F02781206802F0DEFDDF
:1010080042030BD52068264602F0E4FD07F5106977
:1010180083460025BBF1000F40F07B81206802F079
:10102800CDFD002814DAD7F8043823F00103C7F8F7
:10103800043894F8EC33012B40F006820021204656
:1010480084F8EC1300F0F7FB23684FF000425A6174
:10105800206802F0B3FD03050AD5D7F80838DE0783
:1010680002D5204603F086FD23684FF400625A61DA
:10107800206802F0A3FD000113D54FF00062236839
:101088005A6194F8EC23002A40F0E2815B6D01215B
:101098002046C3F3830384F8EC13C4F8F03300F05C
:1010A800CAFB206802F08AFDC10436D507F5006640
:1010B80073681021206823F00103736002F00EFBAF
:1010C800616807F51063FF220298884240F0C481E6
:1010D8004FF0FF33B361F36943F00113F361236BFE
:1010E800002B00F0C281D6F8843043F00B03C6F819
:1010F8008430736C43F00B037364D7F8003804F53D
:101108006F72217C23F4FE632068C7F8003802F070
:10111800A2FD23684FF480525A61206802F04EFD08
:1011280082041CD5206802F07BFD2068C36823F484
:101138007053C36002F0FBFA002840F09F814FF41F
:1011480000732268E0606361D36843F41053D3608E
:10115800204603F0FEFC23684FF400525A612068D1
:1011680002F02CFDC3062BD52268936923F01003E7
:1011780093613E6AC6F3434306F00F09022B40F021
:10118800FA8147F6F0731E4215D04FF01C08C6F3DB
:101198000A16384608FB09483246D8F8041202F005
:1011A8009CFCD8F804323344C8F80432D8F810321A
:1011B8001E44C8F810622268936943F010039361D3
:1011C800206802F0FBFC070705D5204603F0BDFCAC
:1011D800236808225A61206802F0F0FCC60207D58D
:1011E800E9B2204603F0E6FC23684FF480125A6106
:1011F800206802F0E3FC800207D5E9B2204603F03C
:10120800D5FC23684FF400125A61206802F0D6FC1E
:10121800410006D5204603F0D1FC23684FF08042F8
:101228005A61206802F0CAFC42070AD523685D6843
:101238006B0702D5204603F0C5FC23685A6815439E
:101248005D6007B0BDE8F08F18F0010F5AD0EAB220
:1012580020681146039202F0C5FC10F0010F814688
:1012680030D00121B04B039AB160396C99422169A1
:1012780016D9012914D1DAF80810080402D54FF458
:101288000041B1603169DBF80002C1F31201411A73
:10129800CBF81012DBF804120844CBF8040201E082
:1012A8000129EFD01146204603F03EFC21690129AF
:1012B80008D13DB9D4F80C2222B904F56F72206820
:1012C80002F0C9FC19F0080F12D03A6C964B9A42FA
:1012D80009D92269012A06D1DAF80820110402D5B1
:1012E8004FF40042B260204603F018FC0822B260B6
:1012F80019F0100F01D01023B36019F0200F01D09E
:101308002023B36001354FEA580820360BF11C0B37
:101318006FE61BF0010F74D05FFA85FA206851461A
:1013280002F06AFC10F0010F804620D00121D7F8A6
:1013380034382046A94023EA01035146C7F8343817
:101348000123C9F808302369012B01BF736C326C83
:101358009B18736403F0F1FB2169012907D135B9A2
:10136800E36C23B904F56F72206802F074FC18F07E
:10137800080F02D00823C9F8083018F0100F02D05F
:101388001023C9F8083018F0400F02D04023C9F8DC
:10139800083018F0020F02D00223C9F8083018F0FC
:1013A800800F2ED02368326D0393F36CA3EB0208F1
:1013B800336C0422984528BF984608F1030393FB31
:1013C800F2F30493039B03F5106303EB45130593B2
:1013D800059B049A9B699BB2934204D9326DF36CC6
:1013E800934200D9A3B9B8F1000F0ADC039B01228C
:1013F80003F5006AAA40D3F8343823EA0203CAF88E
:10140800343001354FEA5B0B1C3609F1200901E63F
:10141800A3EB0208336C04220398984528BF98462A
:1014280008F1030393FBF2F304935246237C0093E1
:101438001FFA88F3716C02F03DFB736C43447364CC
:10144800336D43443365C3E7204603F0ABFBFBE54C
:10145800204603F08FFB24E60298203343F8182C2B
:101468000130C3F8E82102902EE6736943F00B03BC
:101478007361336943F00B0333613EE60323E36092
:101488004023636100F0A0FD284B294A034493429E
:10149800236804D8DA6842F47052DA6058E6254ABC
:1014A800254902448A4203D8DA6842F46052F4E7D4
:1014B800A0F574022149A2F510528A4203D8DA68CD
:1014C80042F45052E9E7A0F183721D49A2F5E742C0
:1014D8008A4203D8DA6842F44052DEE7194A1A49C8
:1014E80002448A4203D8DA6842F43052D5E7174AF0
:1014F800174902448A4203D8DA6842F42052CCE7FA
:10150800144A154902448A4203D8DA6842F4105250
:10151800C3E7A0F1B7721149A2F558528A421FD801
:10152800DA6842F40052B8E70931544F405327FFB4
:10153800FF340C00401E1BFF3F420F007F4F12007C
:101548001FD6130060B6E5FE5FE3160000D3CEFE9B
:101558003F771B00C05BB3FEBF9121001F753800A9
:101568000D4A0E4902448A42DA6894BF42F4E052B6
:1015780042F4C05291E7062B7FF41DAE4FF01C08D1
:10158800082204F56F71384602F0A7FA08FB0948EB
:10159800C6F30A160AE600BFE05459FEDF9C410074
:1015A80090F8B833012B10B5044609D0012380F810
:1015B800B833006802F0DAFA002084F8B80310BDE6
:1015C800022010BD70B54EB204461C2501F07F0004
:1015D800002EB8BF05FB0041C0B2A8BF05FB014102
:1015E8004FEAD675B4BF383101F5FC71002EB8BF8B
:1015F800C880022BCB7008BF002308704D7008BF4D
:101608000B7194F8B8338A60012B09D00123206844
:1016180084F8B83302F0A6F8002084F8B80370BD47
:10162800022070BD4BB21C22002B4FEAD37310B5B9
:10163800044601F07F00ABBF02FB014102FB004101
:1016480001F5FC71383108704B7094F8B833012BF0
:1016580009D00123206884F8B83302F0C1F80020CB
:1016680084F8B80310BD022010BD38B501F07F051D
:101678001C2404FB050104FB050401F5FC71C4F8F6
:101688000C320023C4F80422C4F8103284F8F9316B
:1016980084F8F85103690068012B08BFC4F80822D0
:1016A800DAB21DB902F08EF9002038BD02F0C4F894
:1016B800FAE71C2301F00F0103FB0101B1F8100246
:1016C800704738B501F07F051C2404FB050104FBB5
:1016D80005043831E364002362642365012384F838
:1016E800385084F8393003690068012B08BFA264B8
:1016F800DAB21DB902F066F9002038BD02F09CF894
:10170800FAE738B54BB201F07F051C220446002BDE
:101718004FEAD373B8BF02FB0501EDB2A8BF02FBC5
:1017280001014FF00102B4BF383101F5FC718A7034
:101738000D704B7090F8B83393420FD080F8B823EF
:10174800006802F0DAF92DB904F56F72217C20687F
:1017580002F081FA002084F8B80338BD022038BDB1
:1017680038B54BB205461C2201F07F00002B4FF024
:1017780000044FEAD373B5BF02FB005102FB0151CD
:10178800383101F5FC718C7008704B7095F8B833DE
:10179800012B09D00123286885F8B83302F0CCF969
:1017A80085F8B843204638BD022038BD006870B5BA
:1017B800436A21B943EA02438362002070BD846A08
:1017C80000254E1E03EB1443ECB20135B44206DB90
:1017D8003F3143EA024300EB81004360EDE74034C8
:1017E80000EB8404646803EB1443EDE7036800200E
:1017F80059627047012102680346C0F8F4130020BB
:1018080083F8EC03936943F000639361536D43F0ED
:10181800805343F003035365704703680122C0F8FF
:10182800F82300209A6B42F400329A639A6B42F4D0
:1018380080229A6370477047024AD36843F08073E6
:10184800D360704700480258F8B503680546D807C2
:101858005CD42B68990700F1AF802B68D90625D591
:10186800AC4B1A6902F03802082A0BD01A6902F048
:101878003802182A40F0F7809B6A03F00303012B13
:1018880040F0F180A34B1A68D20502D5EA69802A94
:1018980053D158684FF0F84292FAA2F2B2FA82F1A4
:1018A8002A6A8A4020F0F8410A435A602B681907CF
:1018B80000F10B812B689A0600F130812B685C07D8
:1018C8001ED5954C236843F480732360FEF7C8FE49
:1018D80006462368DA0540F14681AB688D4C012B3A
:1018E80040F04881236F43F00103236741F28834B5
:1018F800FEF7B6FE874E0746336F9B0740F16081BF
:101908006A6A002A40F063810020F8BD814B1A6999
:1019180002F03802102A09D01A6902F03802182A8F
:101928000DD19B6A03F00303022B08D1794B1B6886
:101938009A038ED56B68002B8BD10120F8BD6B689C
:10194800744CB3F5803F12D1236843F4803323608D
:10195800FEF786FE6F4C064623689B033FF579AF7A
:10196800FEF77EFE801B6428F6D90320F8BDA3B9D4
:10197800236823F480332360236823F480232360BF
:10198800FEF76EFE064623689F037FF562AFFEF7FB
:1019980067FE801B6428F6D9E7E7B3F5A02F236814
:1019A80003D143F480232360CEE723F480332360FC
:1019B800236823F48023CAE7564BE9681A6912F0B2
:1019C800380F07D01A6902F03802182A28D19B6A02
:1019D8009C0725D14F4A1368580701D50029ACD078
:1019E80013684C4C23F019030B431360FEF738FEC1
:1019F800064623685B070DD561684FF47C3393FA7C
:101A0800A3F3B3FA83F22B69934021F47C32134396
:101A1800636022E7FEF724FE801B0228E9D9A4E7C9
:101A28003C4C236879B123F019030B432360FEF77C
:101A380017FE064623685F07DED4FEF711FE801BFB
:101A48000228F7D991E723F001032360FEF708FE87
:101A58000646236858077FF500AFFEF701FE801B96
:101A68000228F6D981E7EB692A4CEBB1236843F0E9
:101A780080032360FEF7F4FD06462368DF050DD5D5
:101A880061684FF0F84393FAA3F3B3FA83F22B6A31
:101A9800934021F0F8421343636007E7FEF7E0FD47
:101AA800801B0228E9D960E7236823F080032360BC
:101AB800FEF7D6FD06462368D8057FF5F7AEFEF794
:101AC800CFFD801B0228F6D94FE76B69114C83B113
:101AD800636F43F001036367FEF7C2FD0646636F59
:101AE8009B073FF5E7AEFEF7BBFD801B0228F6D942
:101AF8003BE7636F23F001036367FEF7B1FD06461A
:101B0800636F9F077FF5D6AEFEF7AAFD801B0228FC
:101B1800F6D92AE70044025800480258AB696E4CCF
:101B280083B1236843F480532360FEF799FD06468A
:101B3800236898043FF5C2AEFEF792FD801B022889
:101B4800F6D912E7236823F480532360FEF788FD53
:101B58000646236899047FF5B1AEFEF781FD801B28
:101B68000228F6D901E7FEF77BFD801B64287FF683
:101B7800B0AEFAE6B3B9236F41F2883723F0010318
:101B88002367236F23F004032367FEF769FD0646E6
:101B9800236F98077FF5B4AEFEF762FD801BB8424D
:101BA800F6D9E2E6052B236F03D143F0040323673C
:101BB80098E623F001032367236F23F0040394E6D8
:101BC800FEF74EFDC01BA0427FF696AECDE6424C16
:101BD800236903F03803182B3FF4AFAE2368022AB9
:101BE80023F08073236069D1FEF73AFD0646236827
:101BF80099015DD4A36AAA6A23F47C7323F00303D2
:101C08001343EA6A43EA0213A3626B6BAA6B013BB4
:101C1800013A5B0212049BB202F4FE0213432A6BE0
:101C2800013AC2F308021343EA6B013A120602F0C2
:101C3800FE42134323634FF6F873626B93FAA3F3E0
:101C4800B3FA83F122F47F42AB6C22F0F8028B40A6
:101C580013436363E36A2A6C23F00C031343E362C0
:101C6800E36A6A6C23F002031343E362E36A43F412
:101C78008033E362E36A43F40033E362E36A43F4E4
:101C88008023E362E36A43F00103E362236843F0DD
:101C980080732360FEF7E4FC0F4C054623689A0125
:101CA8003FF532AEFEF7DCFC401B0228F6D95CE6B5
:101CB800FEF7D6FC801B022899D956E6FEF7D0FC21
:101CC800054623689B017FF51FAEFEF7C9FC401B44
:101CD8000228F6D949E600BF00440258484B1A6961
:101CE80002F03802102A10B50ED0182A0ED0002A99
:101CF80040F084801A68434812F0200F7FD01B6898
:101D0800C3F3C103D84010BD3F4810BD9C6A986A10
:101D1800D96A5A6BC0F3051001F00101DFED3B5A97
:101D2800C2F3CC02514304F0030207EE901A012AD1
:101D3800B8EEE76AF7EE007A02D00ED3022A4CD04A
:101D48001B6B334AC3F3080307EE103AB8EEC77AA1
:101D5800A6EE257A37EE277A4BE01A6812F0200FA4
:101D6800284A26D019681B6BC1F3C101C3F30803C5
:101D7800CA40B2FBF0F207EE102AF8EEC76A07EE87
:101D8800103AB8EEC77AA6EE257A37EE277A66EECD
:101D9800877A1B4B1B6BC3F34623013307EE103ABC
:101DA800F8EEC76A87EEA67AFCEEC77A17EE900AB5
:101DB80010BD1B6BC3F3080307EE103AB8EEC77AE1
:101DC800B2FBF0F3A6EE257A37EE277A07EE903AC3
:101DD800F8EEE77A67EE277ADBE71B6B0A4AC3F36C
:101DE800080307EE103AB8EEC77AA6EE257A37EE62
:101DF800277AB2FBF0F207EE902AE9E7044810BD13
:101E0800004402580090D00300127A000000003904
:101E180000093D00684A136803F007038B422DE967
:101E2800F04104460D4642D3226897074CD4D607A2
:101E380052D4614A136803F007039D42C0F0A8809A
:101E48002268550700F1AF80100706D55B49606925
:101E5800CB6923F070030343CB61D10606D55749FC
:101E6800A069CB6923F4E0630343CB61930606D5ED
:101E7800524AE169136A23F070030B431362FFF7B8
:101E88002DFF4E4B4FF480729B6992FAA2F2B2FA80
:101E980082F203F47063D340494AD35CD840494B7B
:101EA80018600020FEF79CFB0020BDE8F081136855
:101EB80023F007030B431360136803F007039942E9
:101EC800B2D00120BDE8F0813C49E0688B6923F07D
:101ED8000F0303438B61AAE7384BA1689A6922F480
:101EE80070620A439A6161681A6802291DD112F466
:101EF800003FE6D01A6941F28838304F22F00702D5
:101F08000A431A61FEF7ACFB63680646022B19D137
:101F18003B6903F03803102B8BD0FEF7A1FB801B25
:101F28004045F5D90320BDE8F081032902D112F01C
:101F3800007FDEE7012902D112F4807FD9E712F091
:101F4800040FD6E7032B0BD13B6903F03803182B9A
:101F58003FF46FAFFEF784FB801B4045F4D9E1E7FF
:101F6800012B10D13B6903F03803082B3FF461AF14
:101F7800FEF776FB801B4045F4D9D3E7FEF770FBEC
:101F8800801B4045CED83B6913F0380FF6D150E797
:101F9800136823F007032B431360136803F0070348
:101FA8009D428ED14CE7054920698B6923F0700367
:101FB80003438B6148E700BF0020005200440258E9
:101FC800BE5000081801002008B500F0D5FE084BE7
:101FD80001229B6992FAA2F2B2FA82F203F00F038D
:101FE800D340044AD35CD840034B186008BD00BFF7
:101FF80000440258BE5000081C01002008B5FFF735
:10200800E3FF074B1022DB6992FAA2F2B2FA82F2DE
:1020180003F07003D340034AD35CD84008BD00BF27
:1020280000440258BE50000808B5FFF7CDFF074B23
:102038004FF48072DB6992FAA2F2B2FA82F203F4E8
:10204800E063D340024AD35CD84008BD004402583C
:10205800BE500008F8B5314C06460D46A36A03F099
:102068000303032B58D0236823F080632360FEF713
:10207800F7FA074623681A013AD4A36A326823F4A8
:102088007C3343EA0233A362B368F268013B013A46
:102098005B0212049BB202F4FE0213437268013A17
:1020A800C2F3080213433269013A120602F0FE42F3
:1020B8001343A363E36A726923F0C0031343E36223
:1020C800E36AB26923F020031343E362E36AB5B914
:1020D80043F40023E362114C236843F080632360D8
:1020E800FEF7BEFA054623681B010FD50020F8BD90
:1020F800FEF7B6FAC01B0228BCD90320F8BD012D93
:102108000CBF43F4801343F40013E3E7FEF7A8FA87
:10211800401B0228E7D9F0E70120F8BD0044025827
:10212800F8B5314C06460D46A36A03F00303032BAA
:1021380058D0236823F080532360FEF791FA0746AE
:1021480023689A003AD4A36A326823F07C7343EA7E
:102158000253A362B368F268013B013A5B021204BE
:102168009BB202F4FE0213437268013AC2F30802FA
:1021780013433269013A120602F0FE421343236404
:10218800E36A726923F440631343E362E36AB26962
:1021980023F400731343E362E36AB5B943F480039D
:1021A800E362114C236843F080532360FEF758FA2A
:1021B800054623689B000FD50020F8BDFEF750FAAE
:1021C800C01B0228BCD90320F8BD012D0CBF43F465
:1021D800000343F08073E3E7FEF742FA401B02284E
:1021E800E7D9F0E70120F8BD004402582DE9F8438B
:1021F8000468054614F0006014D06B6EB3F5801FB8
:1022080018D002D883B101241BE0B3F5001F23D0F6
:10221800B3F5401FF7D1A64A696E136D23F4401336
:102228000B43136500240CE0A14AD36A43F400333E
:10223800D362F0E70221281DFFF70CFF04460028AF
:10224800E9D02B68DE053CD56B6D042B34D8DFE86C
:1022580003F009102D0E0E00022105F12400FFF7EE
:102268005FFFEBE7924AD36A43F40033D362264612
:1022780004E00021281DFFF7EDFE0646EEB98C4A62
:10228800696D136D23F007030B4313652B689805DD
:1022980027D5AB6D802B43D015D8002B34D0402BDD
:1022A80038D0012644EA0600C4B21AE0002105F13C
:1022B8002400FFF735FFE0E7012644EA0600C4B230
:1022C800E4E72646E2E7C02B02D0B3F5807FE8D1E9
:1022D800002EE7D1764AA96D136D23F4E0730B4302
:1022E80013652B68590531D5D5F8A430B3F5800F9F
:1022F8004BD01BD8002B3CD0B3F5001F3FD0012694
:1023080044EA0600C4B221E0694AD36A43F40033C0
:10231800D362DDE70021281DFFF79CFE0646D7E7BC
:10232800002105F12400FFF7FBFEF7E7B3F5C00F26
:1023380002D0B3F5000FE2D1002EE1D15C4AD5F806
:10234800A410936D23F460030B4393652B681A055F
:1023580031D5D5F8A830B3F1007F45D01BD8002B74
:1023680036D0B3F1807F39D0012644EA0600C4B2E2
:1023780021E04F4AD36A43F40033D362DCE70021FB
:10238800281DFFF767FE0646D6E7002105F1240061
:10239800FFF7C6FEF7E7B3F1407F02D0B3F1806FD5
:1023A800E2D1002EE1D1424AD5F8A810936D23F06E
:1023B800E0630B4393652B689B0128D5AB6C102B0E
:1023C80037D017D8D3B1012644EA0600C4B21EE0BC
:1023D800374AD36A43F40033D362E2E70021281D69
:1023E800FFF738FE0646DCE7002105F12400FFF779
:1023F80097FEF7E7202B22D0302BE4D1002EE3D133
:102408002B4AA96CD36C23F030030B43D3642B689D
:10241800DF0429D5EB6DB3F5005F42D015D8002B4A
:1024280033D0B3F5805F36D0012644EA0600C4B243
:102438001AE01F4AD36A43F40033D362DEE702216D
:10244800281DFFF707FE0646D8E7B3F5405F02D020
:10245800B3F5804FE8D1002EE7D1154AE96D136D29
:1024680023F4E0430B4313652B68980434D52B6E93
:10247800B3F5003F48D01DD82BB3B3F5803F3DD00E
:10248800012644EA0600C4B226E0094AD36A43F4A6
:102498000033D362DFE70021281DFFF7DBFD064686
:1024A800D9E7002105F12400FFF73AFEF7E700BF5E
:1024B80000440258B3F5802F05D0B3F5A02F02D001
:1024C800B3F5403FDCD1002EDBD1A04A296E136D55
:1024D80023F4E0230B4313652B6859042DD5D5F855
:1024E800AC30B3F1005F4CD014D8E3B1B3F1805FE6
:1024F80041D0012644EA0600C4B21EE00121281D8D
:10250800FFF7A8FD0646DEE7012105F12400FFF7E5
:1025180007FEF7E7B3F1804F05D0B3F1A04F02D023
:10252800B3F1405FE5D1002EE4D1884AD5F8AC106C
:10253800936D23F0E0430B4393652B681A040FD582
:10254800EB6EB3F1805F22D0B3F1005F25D053BBAF
:1025580056BB7E4AE96E136D23F040530B43136557
:102568002B68DB0132D56B6C032B00F28A80DFE825
:1025780003F0241F82240121281DFFF76BFD064666
:10258800D1E7012105F12400FFF7CAFDF7E76F4AFB
:10259800D36A43F40033D362DAE70121281DFFF739
:1025A80059FD0646D4E7012644EA0600C4B2D7E737
:1025B800664AD36A43F40033D362002E62D1634A79
:1025C800696CD36C23F003030B43D3642B685F025D
:1025D80042D55F4F3B6843F480733B60FEF740F899
:1025E80080463B68D80551D5002E56D1574BD5F8B3
:1025F800B0001A6F424012F4407F0BD01A6F196F67
:1026080022F4407241F480311967196F21F4803146
:1026180019671A67B0F5807F08D1FEF721F84B4F8C
:10262800804641F288393B6F99073AD5D5F8B030E2
:10263800464903F44072B2F5407F3DD10869454AE6
:1026480020F47C5002EA131202430A61C3F30B031D
:102658003E4A116F0B4313672B68DA073FD5AB6F00
:10266800102B4DD02CD88BB3082B43D0012644EA2D
:102678000600C4B233E00221281DFFF7EBFC064632
:102688009BE7012644EA0600C4B29FE7FDF7E8FF8E
:10269800A0EB08006428A4D9032644EA0600C4B2C3
:1026A800DAE7FDF7DDFFA0EB08004845BBD944F0A9
:1026B80003000326C4B2CFE70A6922F47C52C4E7B8
:1026C800202B03D0282B01D0182BCFD1002ECED110
:1026D8001E4AA96F536D23F038030B4353652B68CB
:1026E8009B0720D56B6F052B36D8DFE803F0140F56
:1026F800281414140121281DFFF7ACFC0646E5E751
:10270800012105F12400FFF70BFDF7E70121281D42
:10271800FFF7A0FC064606BB0C4A696F536D23F011
:1027280007030B4353652B685F0728D5D5F890300E
:10273800052B3CD8DFE803F01A15351A1A1A0121BF
:1027480005F12400FFF7ECFCE4E700BF0044025861
:1027580000480258CFFFFF00012644EA0600C4B231
:10276800E1E70121281DFFF775FC064606BB994ADB
:10277800D5F89010936D23F007030B4393652B68EE
:1027880098062CD5D5F88C30B3F1005F3FD013D81C
:10279800DBB1B3F1805F34D0012644EA0600C4B24D
:1027A8001DE0012105F12400FFF7BAFCDDE7012651
:1027B80044EA0600C4B2E2E7B3F1804F05D0B3F1B2
:1027C800A04F02D0B3F1405FE6D1002EE5D1814A97
:1027D800D5F88C10536D23F0E0430B4353652B68F9
:1027E80059062DD5D5F89830B3F5006F42D014D8D6
:1027F800E3B1B3F5806F37D0012644EA0600C4B2CE
:102808001EE00021281DFFF725FC0646DDE7022112
:1028180005F12400FFF784FCF7E7B3F5805F05D0E6
:10282800B3F5A05F02D0B3F5406FE5D1002EE4D137
:10283800684AD5F89810936D23F4E0530B439365D9
:102848002B681A062FD5D5F89C30B3F5804F00F0C9
:10285800958015D8EBB1B3F5005F00F089800126AB
:1028680044EA0600C4B21EE00021281DFFF7F2FB6F
:102878000646DBE7022105F12400FFF751FCF7E7E4
:10288800B3F5004F05D0B3F5204F02D0B3F5C04FD4
:10289800E5D1002EE4D14F4AD5F89C10936D23F46E
:1028A80060430B4393652B681B070BD5D5F8801045
:1028B800B1F5805F68D1022105F12400FFF730FCF3
:1028C8000443E4B22B68DF060BD5D5F89410B1F5B4
:1028D800807F60D1022105F12400FFF721FC044329
:1028E800E4B22B68180317D5D5F8A010B1F5803FCE
:1028F80058D0B1F5003F05D0002959D1281DFFF760
:10290800A9FB0646002E54D1324AD5F8A010936D83
:1029180023F440330B4393652B68590319D5D5F835
:102928008430B3F5001F48D0B3F5401F07D0B3F586
:10293800801F49D1274AD36A43F40033D362002E5B
:1029480043D1244AD5F88410536D23F440130B4324
:1029580053652B68DA034DD5EB6C002B3CD0B3F5EF
:10296800803F00F09980012644EA0600C4B241E0A5
:102978000021281DFFF76EFB06468AE7022105F1B4
:102988002400FFF7CDFBF7E7124A536D23F44053B9
:102998000B43536596E70F4A936D23F440730B433B
:1029A80093659EE7022105F12400FFF7B9FBA8E72C
:1029B800012644EA0600C4B2AEE7012105F124006D
:1029C800FFF7AEFB0646BAE7012644EA0600C4B2A2
:1029D800BFE700BF004402583B4AD36A43F40033C0
:1029E800D362002EC0D1384AE96CD36C23F480330B
:1029F8000B43D3642B689B0006D5022105F1240004
:102A0800FFF78EFB0443E4B22B689F030ED5E96FF2
:102A1800B1F5807F51D045D8002949D1002E48D141
:102A28002948426D22F440720A434265DE0206D507
:102A38002549286F0A6D22F0004202430A65D80032
:102A480007D52149D5F8B4000A6922F48042024327
:102A58000A61990206D51C49A86E0A6D22F0807297
:102A680002430A655A0009D5174A116921F4004141
:102A780011611169D5F8B80001431161002B06DA1C
:102A8800114A296DD36C23F040530B43D364201CA7
:102A980018BF0120BDE8F8830221281DFFF7DAFAE4
:102AA80006469EE7B1F5007FB8D0B1F5407FB5D0B6
:102AB800012644EA0600C4B2B8E70348C26A42F4F1
:102AC8000032C262AAE700BF0044025808B5FFF707
:102AD8007BFA074B10221B6A92FAA2F2B2FA82F230
:102AE80003F07003D340034AD35CD84008BD00BF4D
:102AF80000440258BE50000830B54A4CDFED4A5A2F
:102B0800A56AA16AE36AE26BC1F3053103F0100319
:102B1800C2F3CC02534307EE903A05F00303012BAE
:102B2800B8EEE76AF7EE007A02D00ED3022B68D02F
:102B3800A36B3E4AC3F3080307EE103AB8EEC77A10
:102B4800A6EE257A37EE277A67E02368384A13F02D
:102B5800200F42D02568A36BC5F3C104C3F3080353
:102B6800E240B2FBF1F207EE102AF8EEC76A07EE70
:102B7800103AB8EEC77AA6EE257A37EE277A66EECF
:102B8800877A284A936BC3F34623013307EE103A3A
:102B9800B8EEC77AC7EE876AFCEEE66AC0ED006A4F
:102BA800936BC3F30643013307EE103AB8EEC77AC6
:102BB800C7EE876AFCEEE66AC0ED016A936BC3F361
:102BC8000663013307EE103AB8EEC77AC7EE876A94
:102BD800FCEEE66AC0ED026A30BDA36BC3F30803DE
:102BE80007EE103AB8EEC77AB2FBF1F3A6EE257AF3
:102BF80037EE277A07EE903AF8EEE77A67EE277A0B
:102C0800BFE7A36B0B4AC3F3080307EE103AB8EE0D
:102C1800C77AA6EE257A37EE277AB2FBF1F207EEED
:102C2800902AE9E7004402580000003900093D00F5
:102C38000090D00300127A0030B54A4CDFED4A5AB2
:102C4800A56AA16AE36A626CC1F3055103F4807353
:102C5800C2F3CC02534307EE903A05F00303012B6D
:102C6800B8EEE76AF7EE007A02D00ED3022B68D0EE
:102C7800236C3E4AC3F3080307EE103AB8EEC77A4E
:102C8800A6EE257A37EE277A67E02368384A13F0EC
:102C9800200F42D02568236CC5F3C104C3F3080391
:102CA800E240B2FBF1F207EE102AF8EEC76A07EE2F
:102CB800103AB8EEC77AA6EE257A37EE277A66EE8E
:102CC800877A284A136CC3F34623013307EE103A78
:102CD800B8EEC77AC7EE876AFCEEE66AC0ED006A0E
:102CE800136CC3F30643013307EE103AB8EEC77A04
:102CF800C7EE876AFCEEE66AC0ED016A136CC3F39F
:102D08000663013307EE103AB8EEC77AC7EE876A52
:102D1800FCEEE66AC0ED026A30BD236CC3F308031B
:102D280007EE103AB8EEC77AB2FBF1F3A6EE257AB1
:102D380037EE277A07EE903AF8EEE77A67EE277AC9
:102D4800BFE7236C0B4AC3F3080307EE103AB8EE4B
:102D5800C77AA6EE257A37EE277AB2FBF1F207EEAC
:102D6800902AE9E7004402580000003900093D00B4
:102D78000090D00300127A0008B5FEF7AFFF084BA9
:102D88004FF480729B6992FAA2F2B2FA82F203F4CB
:102D98007063D340034AD35CD840034B186008BD26
:102DA80000440258BE500008180100202DE9F043E5
:102DB8000446816A056887B0A36822690B432E68B8
:102DC800C069134362691343B34A03433240134350
:102DD800E2682B606B6823F440531343A2696B606D
:102DE800AE4B9D421CBF236A1A43B1F1005F02BF7C
:102DF800E36A216B0B43616A08BF1A43AB6823F08F
:102E08006E4323F430631343AB60EB6A23F00F0384
:102E18000B43EB62A24B9D421CD1A24B5B6D03F0AE
:102E28003803282B00F25E829F4AB0F5004FD35C2E
:102E380040F0E681082B00F0BA8100F26E81012B88
:102E480000F09781C0F07D81042B00F0958101236B
:102E5800002286E1954B9D4208D1924B5B6D03F0B1
:102E68000703052B00F23E82914ADEE7914B9D4213
:102E780008D18C4B5B6D03F00703052B00F23282FF
:102E88008D4AD2E78D4B9D4208D1864B5B6D03F08E
:102E98000703052B00F22682894AC6E7894B9D4223
:102EA80008D1804B5B6D03F00703052B00F21A82F3
:102EB800854ABAE7854B9D4208D17A4B5B6D03F092
:102EC8003803282B00F20E82814AAEE7814B9D42DF
:102ED80008D1744B5B6D03F00703052B00F20282E7
:102EE8007D4AA2E77D4B9D4208D16E4B5B6D03F096
:102EF8000703052B00F2F681794A96E7674B9D4256
:102F080040F0F08103F50E339A6D02F00702052AAE
:102F180001D9012380E073498D5C082D2FD008D892
:102F2800022D21D0042DF4D16846FFF7E5FD019864
:102F38001CE0202D05D0402D1CD0102DE9D16A4869
:102F480001E04FF40040666806EB46038342E0D890
:102F5800B0EB063FDDD8082D78D01AD8022D38D02E
:102F6800042D5DD001234FE0FFF7B0FD0028EAD122
:102F7800002351E003A8FFF75FFE0498F6E71A68FC
:102F88005A4812F0200FDED01B68C3F3C103D840A3
:102F9800D9E7202D00F0B080402D4CD0102DE1D184
:102FA800534B0021626A504833F812200023FDF782
:102FB8008FF932464FEA012900234FEA002849EAEF
:102FC8001069700818EB000549F1000628463146DB
:102FD80017E0FFF77BFD464B626A656833F81220FD
:102FE80000230021FDF774F92A460F020023060288
:102FF80047EA1067680816EB000847F100094046E1
:103008004946FDF765F90023A0F54071394A914218
:103018003FF67FAF2268D060184607B0BDE8F0835E
:103028006846FFF769FD324B626A656833F812201B
:1030380000230198D5E703A8FFF7FEFD2C4B626A31
:10304800656833F8122000230498CAE71549770801
:10305800626A0D68264B15F0200517D009682348C9
:10306800C1F3C10133F812200023C8400021FDF745
:103078002FF932464FEA012900234FEA002849EA8E
:10308800106918EB070049F10001BAE733F812207C
:1030980000231648EAE700BFF369FFCF000C005889
:1030A80000100140004402587050000800440040DD
:1030B800995000080048004099500008004C004012
:1030C8009950000800500040995000080014014031
:1030D800705000080078004099500008007C0040BB
:1030E800995000089F50000800093D000090D00347
:1030F800A6500008FFFC0F00626A4FF400457C4BA5
:103108007008002133F8123032464FF48076B5FB50
:10311800F3F50023E5FB060173E7202B68D0402B6D
:103128003BD0102B7FF493AE714B724A33F81130B9
:103138006068B2FBF3F3420802EB4302B2FBF0F221
:103148000DE0FEF75BFF616A694A636832F8112097
:10315800B0FBF2F05A0802EB4002B2FBF3F292B273
:10316800002322F00F01C2F3420220680A43C26022
:1031780052E7FEF759FFE6E76846FFF7BDFC5C4BF0
:10318800626A616833F81220019BB3FBF2F34A08C4
:1031980002EB4302B2FBF1F2E1E703A8FFF74CFDB3
:1031A800534B626A616833F81220049BEDE7524A78
:1031B80052481368656813F020034D4E0DD012680D
:1031C800C2F3C102D04036F81120B0FBF2F06A0811
:1031D80002EB4002B2FBF5F2C1E736F81120B0FB72
:1031E800F2F06A0802EB4002B2FBF5F292B2B8E7DD
:1031F8003F4B656833F81130B0FBF3F080B2E6E777
:10320800082B46D018D8012B35D024D3042B7FF4B3
:1032180080AE6846FFF770FC354B606A94E806009C
:1032280033F81000019BB3FBF0F303EB5203B3FB3D
:10323800F2F39BB2CB609BE6202B4CD0402B1DD0E9
:10324800102B7FF466AE2A4B626833F81110294BB5
:10325800B3FBF1F308E0FEF7D1FE616A244B626824
:1032680033F81130B0FBF3F303EB5203B3FBF2F383
:103278009BB2EB607CE6FEF7D7FEEEE703A8FFF70C
:10328800DBFC1B4B606A94E8060033F81000049BD3
:10329800C9E7194E60683368184A13F02003144CC4
:1032A8000ED03368C3F3C103DA4034F81130B2FBEF
:1032B800F3F202EB5002B2FBF0F292B2EA6057E688
:1032C80034F81110B2FBF1F202EB5002B2FBF0F24B
:1032D80092B2EA60A0E6064B626833F811104FF428
:1032E8000043B5E7B0F5004F7FF413AEAFE500BF7C
:1032F800A650000800093D00004402580090D00381
:10330800436BDA0710B506D50168846B4A6822F466
:10331800003222434A609C0706D50168C46B4A689C
:1033280022F4803222434A60590706D50168046CAA
:103338004A6822F4802222434A601A0706D50168A7
:10334800446C4A6822F4004222434A60DC0606D5EF
:103358000168846C8A6822F4805222438A60990644
:1033680006D50168C46C8A6822F4005222438A6038
:103378005A0610D50168046D4A68B4F5801F22F416
:10338800801242EA04024A6005D14A68446D22F478
:10339800C00222434A601B0606D50268816D536845
:1033A80023F400230B43536010BD2DE9F041069D23
:1033B80004460F46164698462168CA6937EA02034A
:1033C8000CBF01220022B24202D00020BDE8F081E9
:1033D8006B1CF2D09DB9236803201A6822F4D072BE
:1033E8001A609A6822F001029A60202384F87930E2
:1033F80084F87A30002384F87830BDE8F081FDF74E
:103408002FF9A0EB08008542D6D2E4E773B5002671
:103418000446C667FDF724F9236805461B681A07A2
:1034280017D423681B685B070AD56FF07E43002218
:103438004FF48001204600932B46FFF7B6FFA0B952
:103448002023002084F8793084F8780084F87A30D2
:103458000CE06FF07E4332464FF4001100930346B0
:103468002046FFF7A2FF0028DBD0032002B070BD82
:1034780010B5044660B390F8793003F0FF021BB929
:1034880080F8782001F094FA22682423204684F8F2
:103498007930136823F001031360FFF787FC0128D4
:1034A80016D0636B13B12046FFF72AFF2368204626
:1034B8005A6822F490425A609A6822F02A029A6066
:1034C8001A6842F00102BDE810401A60FFF79EBF7B
:1034D800012010BD84B038B505AD044685E80E005E
:1034E8000A9B012B27D1836B23F480338363C36842
:1034F80023F4840323F04003C360C36823F4401318
:10350800C360119B012B03D1C36843F48013C360CC
:10351800204600F0C1FB089B012B07D1A36843F0AC
:103528000C03A360A36843F02003A3600020BDE858
:10353800384004B07047C36843F04003C36000F0EC
:10354800ABFB4FF48033A363E5E7836843F00103E3
:10355800836000207047836823F0010383600020A4
:10356800704708B5C368012923F0C043C36008D178
:10357800C36843F00053C3603220FDF777F800209A
:1035880008BD0029F8D1C36843F08043C360F3E75E
:1035980084B02DE9F041044607A8884680E80E006B
:1035A800A36B119E43F400130A9FA3635EB9A36B38
:1035B80023F40013A363236843F0400323602368C4
:1035C80043F080032360002304F50065C4F8003E3F
:1035D800D4F80038C4F800380C9B012B58D109994D
:1035E80019B9204600F09CF803E01946204600F07F
:1035F80097F81021204600F071F8204600F080F876
:1036080000234FF0FF324FF090402B6119466B6159
:103618004FF0FF0EAA6104F51062EB61434539D102
:10362800002104F530624FF0904E4FF0FF0C084631
:103638008B423DD12B69012F23F480732B6106D176
:10364800234B2B63234B2A6B13432B632B6B0023D6
:10365800A3616FF0804363611FB9A36943F010034E
:10366800A361A2691C4B1343A3610D9B1BB1A36902
:1036780043F00803A361012E05D1A36943F08043F9
:1036880043F00403A3610020BDE8F04104B0704793
:103698000321A6E7D2F800C0BCF1000F06DA1060DB
:1036A80011610133C2F808E02032B7E71160F7E78B
:1036B800D2F80080B8F1000F07DAC2F800E0106114
:1036C8000131C2F808C02032B2E71060F7E700BF46
:1036D800000400020300010800383C808901074A01
:1036E80041F020010161013A05D0036913F020037C
:1036F800F9D1184670470320704700BF410D0300F9
:103708001023064A0361013A05D0036913F0100338
:10371800F9D1184670470320704700BF410D0300D8
:10372800D0F800381943C0F800180020704700F599
:103738000062D0F8080810F0060012D0936803F071
:103748000603022B0CD0936803F00603062B07D060
:10375800936803F00603042B14BF0020022070476F
:103768000320704730B54B7800F500620C78012BC8
:10377800D5691BD1A34000F510609BB22B43D361E0
:1037880000EB44131A6812040ED48A68C878C2F38E
:103798000A021D6842F0805242F4004242EA804028
:1037A80040EA845028431860002030BD4FF480332D
:1037B80000F53060A34000EB44102B43D36103684D
:1037C8001B04F1D48B68C978C3F30A03026843F079
:1037D800805343F4004343EA814313430360E3E720
:1037E80010B54B7800F500620978012BD46B11D124
:1037F8008B4000F510609BB200EB4110DB431C408E
:10380800D463D4692340D361036823F4004303607D
:10381800002010BD4FF4803300F530608B4000EB82
:103828004110DB431C40D463D4692340D36103684F
:1038380023F400430360EBE7F7B54B780C78012BD2
:103848004B6977D1202600F5106516FB04542669CC
:10385800002B38D126F0FF5626F4C01626612669BB
:1038680046F4002626612669F60CF6042661012A2C
:1038780050D10C780E6905EB44146661CE78012EA0
:103888000FD1D0F808480F7814F4807F4FF0200447
:1038980014FB075427680CBF47F0005747F08057C0
:1038A80027600F78012E05EB47152C6844F0044477
:1038B8002C6005D100929BB23A46C96800F0FAF82C
:1038C800002003B0F0BDF60C8F68F6042661266967
:1038D80026F0FF5626F4C0162661DE19D4F810E04B
:1038E800013EB6FBF7F7364E06EAC74646EA0E062D
:1038F8002661C3F3120627693E432661CE78012E5E
:103908005AD1266926F0C0462661266946F0005637
:103918002661ACE7CE78012EB3D0002BAED091F85B
:1039280000E00124D0F8347804FA0EF43C43C0F8DF
:103938003448A3E700F5306505EB44142569ED0C20
:10394800ED042561256925F0FF5525F4C01525618D
:103958008D68FBB92369C5F312051D4325612369E9
:1039680043F400232361012A01D1CB686361CB783A
:10397800012B0AD1D0F8083813F4807F23680CBFD4
:1039880043F0005343F080532360236843F004431B
:10399800236095E72B440A4E2769013BB3FBF5F3F7
:1039A80006EAC3469BB23E435D432661C5F3120552
:1039B800266935432561D6E7012AAED159E700BF0C
:1039C8000000F81F4B78012BF0B54D690F784DD1E9
:1039D80000F5106420230DBB13FB0740012A03697F
:1039E80023F0FF5323F4C0130361036943F4002356
:1039F800036103694FEAD3434FEAC343036104D128
:103A08000B780A6904EB43135A610B7804EB4313F0
:103A18001A6842F004421A600020F0BD13FB074305
:103A28001E69F60CF6041E611E6926F0FF5626F480
:103A3800C0161E618E68B5421D6988BF4E6145F487
:103A480000254E69012A1D61C6F31205D3F810E05E
:103A580045EA0E051D61D3D0002ED6D00123D0F83B
:103A68003428BB401343C0F83438CEE700F5306043
:103A780000EB47100369DB0CDB040361036923F0E7
:103A8800FF5323F4C01303618B6805B14B610469CC
:103A9800C3F31203012A44F400240461046943EACD
:103AA8000403036101D1CB684361036843F0044315
:103AB8000360B1E710B59DF808403CB9033300F541
:103AC80080509B1000EB0232A34201D1002010BDB0
:103AD80051F8240001341060F6E70332002300F5A2
:103AE8008050921010B5934202D101EB830010BDB3
:103AF800046841F823400133F5E74B780A78012B35
:103B08004FF020030BD100F5106013FB020003688F
:103B1800002B0BDB036823F08043036006E000F50D
:103B2800306013FB02000368002BF3DA036843F4E8
:103B380000130360002070474B780A78012B4FF080
:103B480020030CBF00F5106000F5306013FB020085
:103B5800036823F400130360CB78023B012B03D8DE
:103B6800036843F08053036000207047D0F80038A2
:103B7800090123F4FE6301F4FE61C0F80038D0F8AF
:103B880000381943C0F800180020704708B5D0F86D
:103B9800043823F00203C0F804380320FCF766FD5C
:103BA800002008BD08B5D0F8043843F00203C0F877
:103BB80004380320FCF75AFD002008BD42698069DB
:103BC80010407047D0F8183800F50060C0691840F8
:103BD800000C7047D0F8183800F50060C06918402C
:103BE80080B2704700F5306300F5006003EB4111C7
:103BF8008A6840691040704710B5D0F81048D0F86E
:103C0800343800EB4110CB4000F51060DB018068D0
:103C1800DBB22343184010BD406900F00100704733
:103C2800D0F8003923F4FF6323F00703C0F8003904
:103C380000F500639A6802F00602042A05D1D0F85C
:103C4800002942F00302C0F800295A68002042F413
:103C580080725A60704710B500240129C0F8104BD3
:103C6800D0F8104B44F40024C0F8104BD0F8104B97
:103C780044F01804C0F8104BD0F8104B44F0C0447E
:103C8800C0F8104B05D14FF08023C0F8142BC0F8B2
:103C9800003B002010BD00000A4B013B01D103206E
:103CA80070470269002AF8DA0369064A43F00103FB
:103CB8000361013AF3D0036913F00103F9D11846FF
:103CC800704700BF410D0300D0F818321BB1002027
:103CD800C3F81402704702207047D0F81C3210B5A0
:103CE800D0F818425BB194F80002FF2807D09B680F
:103CF800214694F801229847FF2384F800320020D7
:103D080010BD000043230380004870474000002096
:103D18004323038000487047840000204323038026
:103D280000487047D40000200A23038000487047E9
:103D3800C800002038B50546D0F8184200F0FEFF4C
:103D4800D5F81832C4F80C024BB1D5F81C3204F57A
:103D58000371D4F80402DB689847002038BD0220BC
:103D680038BD0000F8B50F7806460C4617F060031A
:103D780023D0202B19D1CA884B78C2B13906D0F884
:103D880018520BD5D0F81C1218468F682946B84728
:103D9800E2882946304600F084FB06E085F80032C8
:103DA800294685F8012200F091FB0020F8BDD0F8E3
:103DB8001C0284681846A047F7E74B780A2BF4D111
:103DC80001220149E7E700BFA802002010B5044618
:103DD800812100F04BFF0121204600F047FF82219E
:103DE800204600F043FFD4F8183253B1D4F81C32FF
:103DF8005B689847D4F8180201F04EF80023C4F81D
:103E08001832002010BDF8B5037C04467BBB4FF484
:103E180000730222812100F019FF4FF4007302227F
:103E28000121204600F012FF0823032282212046A8
:103E380000F00CFF4FF4077001F026F80646C4F8AE
:103E4800180220B3D4F81C3200251B689847277C39
:103E5800C6F81452C6F8185287B94FF40073D6F84A
:103E680004220121204600F05BFF3846F8BD4023BC
:103E78000222812100F0EAFE4023D0E74023D6F851
:103E880004220121204600F04BFF2846F8BD0120FE
:103E9800F8BD19B1C0F81C12002070470220704705
:103EA800D0F818320020C3F80812C3F8102270475F
:103EB800D0F818320020C3F804127047D0F818223E
:103EC80010B562B1047C44B94FF40073D2F80422EF
:103ED800012100F025FF002010BD4023F6E7022055
:103EE80010BD08B580B1D0F8143213B10023C0F862
:103EF800143209B1C0F810120123027080F8FC31A5
:103F080000F064FE002008BD022008BD19B1C0F809
:103F18001412002070470220704708B500F088FE90
:103F2800002008BD08B5D0F814320BB9022008BD2E
:103F38001B6898470028F9D108BD08B5D0F8143295
:103F48005B689847002008BD38B500F5027504463F
:103F5800284600F076FA012394F80812C4F8F431E0
:103F6800B4F80E32C4F8F83101F01F03012B0ED05B
:103F780007D3022B10D001F08001204600F084FE08
:103F880003E02946204600F0E7F8002038BD29461E
:103F9800204600F0DBF9F8E72946204600F0EEF964
:103FA800F3E738B50446154611BBD0F8F431032BB6
:103FB8000FD1D0F80C31D0F8102193420BD99B1AAD
:103FC80029469A42C0F80C3128BF1A4692B200F02E
:103FD8008CFA002038BDD0F814321B6923B190F850
:103FE800FC21032A00D19847204600F086FAF0E722
:103FF800D0F814329B69002BEBD090F8FC21032AEF
:10400800E7D19847E5E770B5134604460E46002900
:104018003DD1D0F8F421022A0FD1C569026A954230
:1040280014D9AA1A1946C26192B200F047FA334667
:104038001A461946204600F073FE94F80032012B08
:1040480002D1002384F80032002070BD8369B3FBDD
:10405800F2F502FB153565B99A420AD8D0F8F8216D
:10406800934206D22A4600F029FAC4F8F8512B46A2
:10407800DEE7D4F81432DB682BB194F8FC21032A6C
:1040880001D120469847204600F042FAD5E7D0F8FB
:1040980014325B69002BD7D090F8FC21032AD3D1C6
:1040A8009847D1E7002238B50446402511464023F9
:1040B80000F0CCFD2B46C4F8105100228021204688
:1040C80000F0C4FD0123256284F8FC31D4F81832CD
:1040D8002BB1D4F81432204621795B689847002028
:1040E80038BD01740020704790F8FC3180F8FD312C
:1040F800042380F8FC310020704790F8FD3180F8E7
:10410800FC310020704708B590F8FC21032A04D13F
:10411800D0F81432DB6903B19847002008BD0020AD
:10412800704700207047002070470122017908B5C8
:1041380080F8FC21D0F8142252689047002008BD6E
:1041480010B50446802100F09FFD00212046BDE8FF
:10415800104000F099BD000037B54B7804460D4675
:10416800092B79D8DFE813F0C900E5007800D900F9
:1041780078006D000A007800B9008D004B881A0A93
:10418800013A062A68D8DFE802F0041C2967674963
:104198005200D0F810321B680DF10601207C9847B8
:1041A800BDF80620002A67D0EB88002B64D09A421D
:1041B800014628BF1A46ADF80620204600F071F9DE
:1041C8005AE0027CD0F8143232B99B6A0DF106002D
:1041D800984702234370E3E7DB6AF7E7DBB2052B76
:1041E8003AD8DFE803F003070B0F1317D0F81032A3
:1041F8005B68D1E7D0F810329B68CDE7D0F8103271
:10420800DB68C9E7D0F810321B69C5E7D0F810326F
:104218005B69C1E7D0F810329B69BDE7037CDBB965
:10422800D0F814320DF106005B6B9847B8E7037CB1
:1042380093B9D0F814320DF106001B6B9847072389
:10424800C8E78B8843B9CB8833B990F8FC318D78AF
:10425800032B05F07F0503D12046FFF771FF0BE024
:1042680080F8FE51294600F03FFD204600F045F950
:104278002DB1022384F8FC31002003B030BD0123A6
:10428800F8E78978304D01292970E5D890F8FC3194
:10429800022B0CD0032BDFD1B1B90223416080F887
:1042A800FC31FFF74AFE204600F027F9E4E7002931
:1042B800F9D001210323416080F8FC312046FFF743
:1042C80031FE0228EFD1C7E741680129EBD0C9B216
:1042D800FFF733FE29786160F0E7CA88012ABBD16D
:1042E80090F8FC31022B03D0032BB5D1011D64E7F4
:1042F8000146002341F8083F5FE790F8FC31023B94
:10430800012BA9D80123C360D0F804320BB10323D1
:10431800C360022204F10C014FE74B88012BABD19B
:10432800C4F804322946D4F8143220469B689847CA
:10433800B9E790F8FC31023B012B8DD84B88012B53
:104348009AD10023ECE700BFA902002038B590F805
:10435800FC3104460D46032B0DD10B79012B0AD8ED
:10436800D0F814329B689847EB8813B9204600F0C0
:10437800C4F8002038BDFFF7E3FEFAE770B50A7805
:1043880004468E880D4602F06002F3B2202A05D159
:10439800D0F814329B689847002070BD4A78012AEB
:1043A8001CD02AD3032AF7D190F8FC21022A40D046
:1043B800032A02D0FFF7C4FEEEE74A8822B95E0658
:1043C80002D0194600F060FCD4F814322946204681
:1043D8009B689847204600F090F8DDE790F8FC21AC
:1043E800022A26D0032AE5D14A88002AD4D15906C0
:1043F800F0D0194600F056FCE6E790F8FC21022AB6
:1044080017D0032AD6D103F07F0516F0800F19467E
:1044180000EB051514BF143505F5827500F050FC46
:1044280068B101232B6002222946204600F039F8A2
:10443800B2E75A06B0D0194600F026FCACE728606F
:10444800F1E70B7803704B784370CA788B7803EBED
:10445800022343804A790B7903EB02238380CA79CC
:104468008B7903EB0223C380704730B588B10546CA
:104478002B1A15F8014BDBB2002CF9D15B0001387F
:10448800023313800B7003234B70022310F8015F73
:1044980005B930BD5A1CCD540233D2B2DBB28C54AC
:1044A800F4E71346022210B5C0F8F4210A468361E6
:1044B8000021C36100F026FC002010BD08B513469A
:1044C8000A46002100F01EFC002008BD1346032206
:1044D80010B5C0F8F4210A46C0F808310021C0F828
:1044E8000C3100F01DFC002010BD08B513460A462B
:1044F800002100F015FC002008BD08B50423C0F811
:10450800F43100231A46194600F0FCFB002008BDD0
:1045180008B50523C0F8F43100231A46194600F0FF
:10452800FFFB002008BD000013B5174B8022174879
:104538008DF80120E122036000238DF802208DF818
:1045480000308DF803308DF804308DF805300123E4
:10455800C0F804D003720E4BC3600E4B036140F2E7
:10456800F4534361FCF76EFA08B100F0A9F90A4C5C
:1045780034220021204600F097FC212323604FF4C9
:104588004033636102B010BD00800240B8020020D1
:1045980028020020C80100202003002070B58CB03C
:1045A80004461422002107A800F07EFC2268424B32
:1045B8009A427FD1414B02260B2507A9D3F8D82070
:1045C80000243F4842F40042C3F8D820D3F8D8204A
:1045D80002F400420092009AD3F8D82042F48032C4
:1045E800C3F8D820D3F8D82002F480320192019A77
:1045F800D3F8D82042F40032C3F8D820D3F8D82012
:1046080002F400320292029AD3F8E02042F0040247
:10461800C3F8E020D3F8E02002F004020392039AE2
:10462800D3F8E02042F00102C3F8E020D3F8E020FC
:1046380002F001020492049AD3F8E02042F0020248
:10464800C3F8E020D3F8E02002F002020592059AB0
:10465800D3F8E02042F04002C3F8E020D3F8E0307D
:10466800089603F040030B950693069B32230793A5
:10467800FCF728FB862307A9124807930896099494
:104688000A940B95FCF71EFB4FF4005307A90E483C
:104698000793089609940A940B95FCF713FB4FF4BB
:1046A800205307A909480793089609940A940B957B
:1046B800FCF708FB0CB070BD0080024000440258B3
:1046C8000008025800000258000402580018025856
:1046D800F0B58DB014220021404F07A8404D00F0DE
:1046E800E3FB404B38464FF48141D3F8E0200024E7
:1046F800012642F00402C3F8E020D3F8E02002F0DB
:1047080004020192019AD3F8E02042F08002C3F833
:10471800E020D3F8E02002F080020292029AD3F857
:10472800E02042F00102C3F8E020D3F8E02002F0D4
:1047380001020392039AD3F8E02042F00202C3F880
:10474800E020D3F8E02002F002020492049AD3F8A1
:10475800E02042F00802C3F8E020D3F8E02002F09D
:1047680008020592059AD3F8E02042F04002C3F807
:10477800E0200022D3F8E03003F040030693069BC4
:10478800FCF78AFB002228464021FCF785FB4FF402
:10479800005307A914480793144B09940893FCF78E
:1047A80091FA4FF4814307A938460896079309946C
:1047B8000A94FCF787FA402307A928460896079326
:1047C80009940A94FCF77EFA802307A928460894DE
:1047D80007930994FCF776FA0DB0F0BD000402586F
:1047E800001802580044025800080258000011112D
:1047F80030B5CDB04C2200210AA800F055FB20228C
:10480800002102A800F050FBBC2200211DA800F0E6
:104818004BFB224BDA6822F00402DA600022019294
:104828009A6922F4404242F480429A619A6902F4F9
:1048380040420192019A9A699204FCD54FF4A02350
:104848001822002401250B930223169204221393A5
:104858000AA81493179319930C2318921A930A957C
:1048680015951B941C94FCF7EFFF3F23294602A8DB
:1048780004940293032305940393069407940894DD
:104888000994FDF7C7FA064B1DA83A941D934FF4F7
:1048980080133E93FDF7AAFC4DB030BD0048025886
:1048A8000200040008B5FBF7BFFEFFF7A1FFFFF702
:1048B8000FFFFFF739FE00F059F800F0B1F8FEE7F6
:1048C80070470000074B82B0D3F8F42042F0020290
:1048D800C3F8F420D3F8F43003F002030193019BEA
:1048E80002B07047004402587047FEE7FEE7FEE753
:1048F800FEE7704770477047FBF7A6BE0148FCF714
:104908004FBB00BFF815002014491548D1F888306E
:1049180043F4700310B5C1F88830124B1A6842F09E
:1049280001021A6000221A611C68204018609A610E
:10493800DA611A629A62DA621A635A639A63DA630C
:104948001A645A64186820F4802018601A660122D4
:10495800054B1A604FF000638B6010BD00ED00E05E
:104968007FEDF6EA004402580881005108B50E4868
:104978004FF4E13E0D4B0C2280E8084000234261D1
:104988008360C36003618361C361036243628362BE
:10499800C36203634363FEF76BFD18B1BDE80840CB
:1049A800FFF78EBF08BD00BF540300200048004039
:1049B80010B588B004461422002103A800F074FA48
:1049C8002268144B9A4223D1134B03A91348D3F8F6
:1049D800E82042F48022C3F8E820D3F8E82002F463
:1049E80080220192019AD3F8E02042F00802C3F82D
:1049F800E020D3F8E03003F008030293029B4FF461
:104A0800407303930223049307230793FCF75AF98F
:104A180008B010BD0048004000440258000C02587D
:104A280010B50A4C00220A492046FFF75AFA0949EC
:104A38002046FFF76BFA08492046FFF72AFA204676
:104A4800FFF76BFABDE81040FCF7F6BED403002070
:104A580030010020080000202001002000207047BD
:104A68000020704710B5054C01462046FFF720FA94
:104A78002046FFF723FA002010BD00BFD403002012
:104A880010B5064C002206492046FFF709FA0549E9
:104A98002046FFF70DFA002010BD00BFD403002008
:104AA800F80D0020F80500200268194B9A4210B54D
:104AB80086B02BD14FF4E853002401A9154801937F
:104AC8000223039402930A2304940593FCF7FAF84B
:104AD8004FF4007301A90F48019302940394FCF763
:104AE800F1F80D4B65202146D3F8D82042F000623A
:104AF800C3F8D8202246D3F8D83003F000630093D7
:104B0800009BFBF7E1FD6520FBF716FE06B010BD24
:104B180000000840000002580044025800F56F7178
:104B2800D0F8FC03FFF710BA1C2303FB0103D0F8ED
:104B3800FC03D3F80422FFF734BA1C2303FB010358
:104B4800D0F8FC035A6CFFF75EBAD0F8FC03FFF705
:104B5800DABAC168003110B5044618BF0121D0F88F
:104B6800FC03FFF7BEFAD4F8FC03BDE81040FFF7DA
:104B780099BA000010B50446D0F8FC03FFF7B4FA60
:104B88002268D2F8003E43F00103C2F8003E236ACF
:104B980023B1034A136943F00603136110BD00BF34
:104BA80000ED00E0D0F8FC03FFF7A7BAD0F8FC034B
:104BB800FFF7B7BAD0F8FC03FFF7B1BAD0F8FC0397
:104BC800FFF7B1BAD0F8FC03FFF7AFBA08B502781F
:104BD80042BB154B0921C3F8FC03C0F82032134827
:104BE8001A615A611A629A621A6383E80300022101
:104BF8001846D96099610121D9615962D962FCF7D7
:104C080050F908B1FFF75CFE80210748FCF7EEFD7C
:104C1800402200210448FCF7C9FD802201210248F6
:104C2800FCF7C4FD002008BDF8150020000008406E
:104C380008B5D0F82002FCF7A9F903289ABF024B5F
:104C4800185C022008BD00BFCE50000810B51C46F5
:104C5800D0F8200213462246FCF7B4FC03289ABF7A
:104C6800014B185C022010BDCE50000808B5D0F8E2
:104C78002002FCF7D7FC03289ABF024B185C0220DD
:104C880008BD00BFCE50000808B5D0F82002FCF7D8
:104C980038FD03289ABF024B185C022008BD00BFEC
:104CA800CE50000808B5D0F82002FCF759FD0328BB
:104CB8009ABF024B185C022008BD00BFCE50000806
:104CC80011F0800FD0F820324FF01C0217BF01F00E
:104CD8007F0102FB013102FB013191F83A0008BF64
:104CE80091F8FA017047000008B5D0F82002FCF7E7
:104CF80057FC03289ABF024B185C022008BD00BF6E
:104D0800CE50000808B5D0F82002FCF7DAFC0328DA
:104D18009ABF024B185C022008BD00BFCE500008A5
:104D280008B5D0F82002FCF7A0FC03289ABF024B74
:104D3800185C022008BD00BFCE50000808B5D0F8A6
:104D48002002FCF7B6FC08BD122301480B8070470F
:104D58004C010020042301480B80704760010020AB
:104D680010B5044C0A4604482146FFF77EFB20464E
:104D780010BD00BFF8190020EB50000810B5044C16
:104D88000A4604482146FFF770FB204610BD00BFC5
:104D9800F8190020FE50000810B5044C0A460448D3
:104DA8002146FFF762FB204610BD00BFF81900201E
:104DB8001451000810B5044C0A4604482146FFF770
:104DC80054FB204610BD00BFF8190020D25000083F
:104DD80010B5044C0A4604482146FFF746FB204616
:104DE80010BD00BFF8190020DD500008DFF834D0EE
:104DF800002103E00C4B5B58435004310B480C4B2B
:104E080042189A42F6D30B4A02E0002342F8043BC8
:104E1800094B9A42F9D3FFF777FD00F011F8FFF735
:104E280041FD7047000002203451000800000020B6
:104E3800C801002088020020FC1B0020FEE70000BB
:104E480070B50D4E0D4CA41BA4100025A54209D128
:104E58000B4E0C4C00F0FCF8A41BA4100025A54236
:104E680005D170BD56F8253098470135EEE756F85C
:104E7800253098470135F2E72C5100082C510008DD
:104E88002C51000830510008024B0146186800F008
:104E980061B800BF64010020024B0146186800F0A9
:104EA8000BB800BF6401002002440346934200D1BE
:104EB800704703F8011BF9E738B50546002945D0C6
:104EC80051F8043C0C1F002BB8BFE41800F0B0F8F0
:104ED8001F4A1368104633B9636014602846BDE85A
:104EE800384000F0A6B8A3420CD921686218934252
:104EF80004BF1A685B68636004BF521822600460CC
:104F0800ECE713465A680AB1A242FAD91968581848
:104F1800A0420BD120680144581882421960DDD1A3
:104F2800106852685A6001441960D7E702D90C2307
:104F38002B60D3E7206821188A4204BF11685268A1
:104F4800626004BF091821605C60C7E738BD00BF14
:104F5800AC02002070B5CD1C25F0030508350C2DDA
:104F680038BF0C25002D064601DBA94203D90C23C6
:104F78003360002070BD00F05BF8234A14682146B6
:104F880091B9224C23681BB9304600F041F82060E3
:104F98002946304600F03CF8431C26D10C233360E8
:104FA800304600F046F8E4E70B685B1B1AD40B2B7D
:104FB8000FD90B60CD50CC18304600F03AF804F108
:104FC8000B00231D20F00700C31A1BD05A42E250E1
:104FD80070BD8C420DBF63684B686360136018BF77
:104FE8000C46E9E70C464968CAE7C41C24F00304E8
:104FF800A04205D0211A304600F00AF80130CDD081
:105008002560D9E770BD00BFAC020020B0020020C7
:1050180038B5064C002305460846236000F00AF818
:10502800431C02D1236803B12B6038BDF81B002054
:1050380070477047044B1968024609B9034919605B
:10504800186802441A607047B4020020FC1B002054
:10505800F8B500BFF8BC08BC9E467047F8B500BF5D
:08506800F8BC08BC9E4670472D
:10507000018080808080808004808080808080802B
:1050800040808080808080800880808080808080D8
:1050900010808080808080802000044008102002E2
:1050A000044008102000010002000400060008006F
:1050B0000A000C00100020004000800000010000E9
:1050C00000000102030401020304060708090002AC
:1050D000010243444320436F6E66696700434443C3
:1050E00020496E746572666163650053544D69634F
:1050F000726F656C656374726F6E6963730053548D
:105100004D3332205669727475616C20436F6D5057
:105110006F727400303030303030303030303141E8
:04512000000000008B
:08512400E4B1FF7F010000006F
:04512C00BD020008B8
:0451300099020008D8
:1051340001000000100000000F3E0008D53D0008EB
:105144006D3D000800000000E33C0008D13C00086D
:105154003D3D0008000000000000000000000000C9
:10516400193D00080D3D0008253D0008313D0008AB
:1051740009024300020100C03209040000010202D6
:105184000100052400100105240100010424020289
:105194000524060001070582030800100904010024
:1051A400020A000000070501024000000705810211
:1051B4004000000009024300020100C0320904005B
:1051C4000001020201000524001001052401000170
:1051D40004240202052406000107058203080010C6
:1051E40009040100020A0000000705010200020090
:1051F40007058102000200000A06000200000040C8
:105204000100000009074300020104C03209040040
:10521400000102020100052400100105240100011F
:10522400042402020524060001070582030800FF86
:1052340009040100020A0000000705010240000001
:1052440007058102400000000090D0030090D003C5
:10525400894A0008654A0008694A00086D4A00083E
:10526400514D00085D4D0008694D0008854D00084A
:10527400A14D0008BD4D0008D94D000812010002DF
:1052840002020040830440570002010203010000AF
:10529400040309046801002000000000000000006D
:1052A40000000000000000000000000000000000FA
:1052B40000000000000000000000000000000000EA
:1052C40000000000000000000000000000000000DA
:1052D40000000000000000000000000000000000CA
:1052E40000000000000000000000000000000000BA
:0852F4000000000000000000B2
:1052FC0000000000000000000000000000000000A2
:10530C000000000000000000000000000000000091
:10531C000000000000000000000000000000000081
:10532C000000000000000000000000000000000071
:10533C000000000000000000000000000000000061
:10534C000000000000000000000000000000000051
:10535C000000000000000000000000000000000041
:10536C000000000000000000000000000000000031
:10537C000000000000000000000000000000000021
:10538C000000000000000000000000000000000011
:10539C000000000000000000000000000000000001
:1053AC0000000000000000000000000000000000F1
:0400000508004DF5AD
:00000001FF
