:020000040800F2
:1000000000000220D12D0008E12B0008E32B00089E
:10001000E52B0008E72B0008E92B00080000000092
:10002000000000000000000000000000EB2B0008B2
:10003000ED2B000800000000EF2B0008F12B00085A
:10004000212E0008212E0008212E0008212E000854
:10005000212E0008212E0008212E0008212E000844
:10006000212E0008212E0008212E0008212E000834
:10007000212E0008212E0008212E0008212E000824
:10008000212E0008212E0008212E0008212E000814
:10009000212E0008212E0008212E0008212E000804
:1000A000212E0008212E0008212E0008212E0008F4
:1000B000212E0008212E0008212E0008212E0008E4
:1000C000212E0008212E0008212E0008212E0008D4
:1000D000212E0008212E0008212E0008212E0008C4
:1000E000212E0008212E000800000000212E00080B
:1000F000212E0008212E0008212E0008212E0008A4
:10010000212E0008212E0008212E0008212E000893
:10011000212E0008212E0008212E0008212E000883
:10012000212E0008212E0008212E0008212E000873
:10013000212E0008212E0008212E0008212E000863
:1001400000000000000000000000000000000000AF
:10015000212E0008212E0008212E0008212E000843
:10016000212E0008212E0008212E0008212E000833
:10017000212E0008212E0008212E0008000000007A
:10018000212E0008212E0008212E0008212E000813
:10019000212E0008212E0008212E0008212E000803
:1001A000212E0008212E0008212E0008212E0008F3
:1001B000212E0008212E0008212E0008212E0008E3
:1001C000212E0008212E0008212E0008212E0008D3
:1001D000212E0008212E0008212E0008212E0008C3
:1001E000212E0008212E0008212E0008212E0008B3
:1001F000212E0008212E0008212E0008212E0008A3
:10020000212E0008212E0008212E0008212E000892
:10021000212E0008212E0008212E0008212E000882
:10022000212E0008212E0008212E000800000000C9
:10023000212E0008212E000800000000212E0008B9
:10024000212E0008212E0008212E0008212E000852
:10025000212E0008212E0008212E0008212E000842
:10026000212E0008212E0008212E0008212E000832
:10027000212E0008212E0008212E00080000000079
:10028000212E000800000000212E000800000000C0
:0802900000000000212E00080F
:1002980010B5054C237833B9044B13B10448AFF3B8
:1002A80000800123237010BD100000200000000012
:1002B8007C2E000808B5034B1BB103490348AFF374
:1002C800008008BD00000000140000207C2E0008FB
:1002D80053B94AB9002908BF00281CBF4FF0FF31A5
:1002E8004FF0FF3000F07AB9ADF1080C6DE904CE9B
:1002F80000F006F8DDF804E0DDE9022304B07047F9
:100308002DE9F0478C460D460446089E002B51D136
:100318008A4217466DD9B2FA82FEBEF1000F0BD0A1
:10032800CEF1200C01FA0EF520FA0CFC02FA0EF7B9
:100338004CEA050C00FA0EF44FEA174A250CBCFBF0
:10034800FAF81FFA87F90AFB18CC45EA0C4508FBAE
:1003580009F3AB420AD9ED1908F1FF3280F0238185
:10036800AB4240F22081A8F102083D44ED1AA4B244
:10037800B5FBFAF00AFB105544EA054400FB09F9FD
:10038800A14509D9E41900F1FF3380F00A81A1459C
:1003980040F2078102383C44A4EB090440EA0840D3
:1003A8000021002E61D024FA0EF40023346073601B
:1003B800BDE8F0878B4207D9002E54D0002186E88B
:1003C80021000846BDE8F087B3FA83F1002940F020
:1003D8008E80AB4202D3824200F2FA80841A65EB27
:1003E80003050120AC46002E3FD086E81010BDE87A
:1003F800F08712B90127B7FBF2F7B7FA87FEBEF10B
:10040800000F34D1EB1B3A0C1FFA87FC0121B3FB18
:10041800F2F8250C02FB183345EA03450CFB08F3F8
:10042800AB4207D9ED1908F1FF3002D2AB4200F216
:10043800D1808046ED1AA3B2B5FBF2F002FB10554D
:1004480043EA05440CFB00FCA44507D9E41900F174
:10045800FF3302D2A44500F2B8801846A4EB0C047E
:1004680040EA08409DE731463046BDE8F087CEF1C6
:10047800200405FA0EF307FA0EF720FA04F83A0CEE
:1004880025FA04F448EA0308B4FBF2F14FEA1845E8
:1004980002FB11441FFA87FC45EA044501FB0CF3F3
:1004A800AB4200FA0EF409D9ED1901F1FF3080F0E2
:1004B8008A80AB4240F2878002393D44EB1A1FFA2A
:1004C80088F5B3FBF2F002FB103345EA034500FB65
:1004D8000CF3AB4207D9ED1900F1FF386FD2AB42EC
:1004E8006DD902383D44EB1A40EA01418FE7C1F16A
:1004F800200722FA07F88B4005FA01F448EA0303BB
:1005080020FA07FE4FEA134CFD404EEA040EB5FBF5
:10051800FCF94FEA1E440CFB19551FFA83F844EA0C
:10052800054509FB08F4AC4202FA01F200FA01FAA7
:1005380008D9ED1809F1FF3043D2AC4241D9A9F1ED
:1005480002091D442D1B1FFA8EFEB5FBFCF00CFBA7
:1005580010554EEA054400FB08F8A04507D9E418F1
:1005680000F1FF3529D2A04527D902381C4440EABA
:100578000940A4EB0804A0FB02894C45C6464D4639
:1005880015D312D056B1BAEB0E0364EB050404FA86
:1005980007F7CB401F43CC40376074600021BDE8AB
:1005A800F0871846F8E69046E0E6C245EAD2B8EB8E
:1005B800020E69EB03050138E4E72846D7E7404611
:1005C80091E78146BEE7014678E702383C4445E7B3
:1005D800084608E7A8F102083D442BE7704700BF2A
:1005E80038B50E4B05460E4A18784FF47A73B3FBAC
:1005F800F0F31068B0FBF3F000F094F8044658B933
:100608000F2D09D8024629464FF0FF3000F052F866
:10061800044B20461D6038BD012038BD0000002075
:10062800080000200400002010B5032000F030F876
:100638000020FFF7D5FF044618B902F0BBFA2046A0
:1006480010BD0124FBE70000034A044B11681B7826
:100658000B441360704700BF2C00002000000020EE
:10066800014B1868704700BF2C00002038B50446BD
:10067800FFF7F6FF0546631C1EBF044B1B78E41802
:10068800FFF7EEFF401B8442FAD838BD0000002077
:10069800074A0002D36800F4E06023F4E0631B0417
:1006A8001B0C43F0BF6343F400330343D36070472C
:1006B80000ED00E0194B30B5DC68C4F30224C4F146
:1006C8000703251D042B28BF0423062D4FF0010521
:1006D8008CBF033C002405FA03F3002803F1FF3321
:1006E80001EA030101FA04F105FA04F404F1FF3404
:1006F80002EA040242EA01024FEA021207DB00F1B1
:100708006040D2B200F5614080F8002330BD00F0AF
:100718000F00D2B2024B1A5430BD00BF00ED00E00A
:1007280014ED00E00138B0F1807F0AD2064BF021C9
:10073800064A5860002082F82310072298601A6041
:1007480070470120704700BF10E000E000ED00E0B6
:100758002DE9F04F0B6885B0DFF8C0814FF0B04944
:1007680001930023DFF8B8C10127019A9F4007EAE7
:100778000205AF4240F0B7804A6822F01006022E08
:1007880016D14FEAD30A03F0070B4FF00F0E00EB18
:100798008A0A4FEA8B0BDAF820400EFA0BFE24EA9D
:1007A8000E0E0C6904FA0BF444EA0E04CAF8204051
:1007B8004FEA430A0324D0F800B002F0030E04FA0B
:1007C8000AF4013E0EFA0AFEE443012E0BEA040B7A
:1007D8004EEA0B0EC0F800E010D8866806EA040B53
:1007E800CE6806FA0AFE4EEA0B068660466826EAD6
:1007F8000707C2F300169E4037434760C668344077
:100808008E6806FA0AF63443C460D4006BD5D8F86B
:10081800F44023F0030603F003074FF00F0E44F0F3
:10082800020406F1B046BF00C8F8F44006F5806639
:10083800D8F8F44004F002040394039C0EFA07F479
:10084800D6F808A02AEA040E334CA04252D004F588
:100858008064A04250D004F58064A0424ED004F5D4
:100868008064A0424CD004F58064A0424AD004F5CC
:100878008064A04248D004F58064A04246D004F5C4
:100888008064A04244D004F58064A04242D004F5BC
:100898008064A04214BF0A240924BC40D70344EA58
:1008A8000E04B4606FEA0506DCF8004054BF34401B
:1008B8002C439703CCF80040DCF8044054BF344084
:1008C8002C43D7024FF0B047CCF80440D9F8004089
:1008D80054BF34402C4392023C607C6854BF34407F
:1008E8002C43C9F804400133102B7FF43DAF05B009
:1008F800BDE8F08F0024D0E70124CEE70224CCE73E
:100908000324CAE70424C8E70524C6E70624C4E785
:100918000724C2E70824C0E7000002580044025830
:10092800800000580AB10183704741837047F0B5D1
:1009380005468BB000286DD003232C466E462F1D2C
:1009480080F8B93302F0FEF954F8100B01F007FFF4
:100958000FCC0FC60FCC0FC694E8030005F11004A6
:1009680086E8030097E80E002868012601F0BCFE1F
:100978000021286801F0F9FE00212B462A46084686
:1009880082F838101C325184013156770F29D077FC
:10099800506290621063F3D10022D5F800E011464E
:1009A80083F8F82102F14000DA8701320EEB80006B
:1009B80083F8F9110F2A83F8FB11C3F8001203F129
:1009C8001C03C3F8E811C3F8F0114160E8D10FCC5B
:1009D8006E460FC60FCC0FC694E8030086E80300E6
:1009E800704697E80E0001F0D7FE012385F8B93369
:1009F800AB6A012B02D1284600F00EF86B6A012B76
:100A080002D1284600F01BF8286801F094FF002066
:100A18000BB0F0BD0120FBE7012102680346C0F8D6
:100A2800F413002083F8EC03936943F000639361A7
:100A3800536D43F0805343F00303536570470368D5
:100A48000122C0F8F82300209A6B42F400329A631E
:100A58009A6B42F480229A6370470000F8B50368E5
:100A68000546D8075CD42B68990700F1AF802B683E
:100A7800D90625D5AC4B1A6902F03802082A0BD0E2
:100A88001A6902F03802182A40F0F7809B6A03F0CE
:100A98000303012B40F0F180A34B1A68D20502D55D
:100AA800EA69802A53D158684FF0F84292FAA2F2C4
:100AB800B2FA82F12A6A8A4020F0F8410A435A6061
:100AC8002B68190700F10B812B689A0600F1308119
:100AD8002B685C071ED5954C236843F4807323600C
:100AE800FFF7BEFD06462368DA0540F14681AB688C
:100AF8008D4C012B40F04881236F43F0010323679D
:100B080041F28834FFF7ACFD874E0746336F9B07E9
:100B180040F160816A6A002A40F063810020F8BDD4
:100B2800814B1A6902F03802102A09D01A6902F0BA
:100B38003802182A0DD19B6A03F00303022B08D14F
:100B4800794B1B689A038ED56B68002B8BD10120DB
:100B5800F8BD6B68744CB3F5803F12D1236843F439
:100B680080332360FFF77CFD6F4C064623689B03A8
:100B78003FF579AFFFF774FD801B6428F6D9032091
:100B8800F8BDA3B9236823F480332360236823F4D2
:100B980080232360FFF764FD064623689F037FF5E3
:100BA80062AFFFF75DFD801B6428F6D9E7E7B3F570
:100BB800A02F236803D143F480232360CEE723F4D6
:100BC80080332360236823F48023CAE7564BE968FF
:100BD8001A6912F0380F07D01A6902F03802182A79
:100BE80028D19B6A9C0725D14F4A1368580701D51D
:100BF8000029ACD013684C4C23F019030B43136045
:100C0800FFF72EFD064623685B070DD561684FF494
:100C18007C3393FAA3F3B3FA83F22B69934021F45C
:100C28007C321343636022E7FFF71AFD801B02281A
:100C3800E9D9A4E73C4C236879B123F019030B43A5
:100C48002360FFF70DFD064623685F07DED4FFF734
:100C580007FD801B0228F7D991E723F001032360E1
:100C6800FFF7FEFC0646236858077FF500AFFFF73D
:100C7800F7FC801B0228F6D981E7EB692A4CEBB117
:100C8800236843F080032360FFF7EAFC06462368E5
:100C9800DF050DD561684FF0F84393FAA3F3B3FA73
:100CA80083F22B6A934021F0F8421343636007E70D
:100CB800FFF7D6FC801B0228E9D960E7236823F0F8
:100CC80080032360FFF7CCFC06462368D8057FF530
:100CD800F7AEFFF7C5FC801B0228F6D94FE76B6912
:100CE800114C83B1636F43F001036367FFF7B8FCEE
:100CF8000646636F9B073FF5E7AEFFF7B1FC801B25
:100D08000228F6D93BE7636F23F001036367FFF717
:100D1800A7FC0646636F9F077FF5D6AEFFF7A0FCDA
:100D2800801B0228F6D92AE70044025800480258D6
:100D3800AB696E4C83B1236843F480532360FFF79B
:100D48008FFC0646236898043FF5C2AEFFF788FC7F
:100D5800801B0228F6D912E7236823F48053236006
:100D6800FFF77EFC0646236899047FF5B1AEFFF7CE
:100D780077FC801B0228F6D901E7FFF771FC801B7E
:100D880064287FF6B0AEFAE6B3B9236F41F288372C
:100D980023F001032367236F23F004032367FFF77E
:100DA8005FFC0646236F98077FF5B4AEFFF758FC43
:100DB800801BB842F6D9E2E6052B236F03D143F036
:100DC8000403236798E623F001032367236F23F0C6
:100DD800040394E6FFF744FCC01BA0427FF696AEDE
:100DE800CDE6424C236903F03803182B3FF4AFAE2D
:100DF8002368022A23F08073236069D1FFF730FC4F
:100E08000646236899015DD4A36AAA6A23F47C7311
:100E180023F003031343EA6A43EA0213A3626B6BEA
:100E2800AA6B013B013A5B0212049BB202F4FE0278
:100E380013432A6B013AC2F308021343EA6B013ADF
:100E4800120602F0FE42134323634FF6F873626BF7
:100E580093FAA3F3B3FA83F122F47F42AB6C22F046
:100E6800F8028B4013436363E36A2A6C23F00C0394
:100E78001343E362E36A6A6C23F002031343E362F9
:100E8800E36A43F48033E362E36A43F40033E362E2
:100E9800E36A43F48023E362E36A43F00103E36215
:100EA800236843F080732360FFF7DAFB0F4C054695
:100EB80023689A013FF532AEFFF7D2FB401B0228A8
:100EC800F6D95CE6FFF7CCFB801B022899D956E6D9
:100ED800FFF7C6FB054623689B017FF51FAEFFF7AA
:100EE800BFFB401B0228F6D949E600BF0044025860
:100EF800484B1A6902F03802102A10B50ED0182A89
:100F08000ED0002A40F084801A68434812F0200F5F
:100F18007FD01B68C3F3C103D84010BD3F4810BD44
:100F28009C6A986AD96A5A6BC0F3051001F00101EE
:100F3800DFED3B5AC2F3CC02514304F0030207EE43
:100F4800901A012AB8EEE76AF7EE007A02D00ED3BB
:100F5800022A4CD01B6B334AC3F3080307EE103A3E
:100F6800B8EEC77AA6EE257A37EE277A4BE01A68EC
:100F780012F0200F284A26D019681B6BC1F3C10153
:100F8800C3F30803CA40B2FBF0F207EE102AF8EEEA
:100F9800C76A07EE103AB8EEC77AA6EE257A37EE9A
:100FA800277A66EE877A1B4B1B6BC3F34623013304
:100FB80007EE103AF8EEC76A87EEA67AFCEEC77A13
:100FC80017EE900A10BD1B6BC3F3080307EE103A27
:100FD800B8EEC77AB2FBF0F3A6EE257A37EE277A99
:100FE80007EE903AF8EEE77A67EE277ADBE71B6BB5
:100FF8000A4AC3F3080307EE103AB8EEC77AA6EE1A
:10100800257A37EE277AB2FBF0F207EE902AE9E765
:10101800044810BD004402580090D00300127A0022
:101028000000003900093D00684A136803F007030F
:101038008B422DE9F04104460D4642D322689707BA
:101048004CD4D60752D4614A136803F007039D4273
:10105800C0F0A8802268550700F1AF80100706D5B8
:101068005B496069CB6923F070030343CB61D10608
:1010780006D55749A069CB6923F4E0630343CB61E4
:10108800930606D5524AE169136A23F070030B43AD
:101098001362FFF72DFF4E4B4FF480729B6992FA53
:1010A800A2F2B2FA82F203F47063D340494AD35CE5
:1010B800D840494B18600020FFF792FA0020BDE89D
:1010C800F081136823F007030B431360136803F0E0
:1010D80007039942B2D00120BDE8F0813C49E0689D
:1010E8008B6923F00F0303438B61AAE7384BA16890
:1010F8009A6922F470620A439A6161681A6802293F
:101108001DD112F4003FE6D01A6941F28838304FF9
:1011180022F007020A431A61FFF7A2FA636806463B
:10112800022B19D13B6903F03803102B8BD0FFF742
:1011380097FA801B4045F5D90320BDE8F0810329C3
:1011480002D112F0007FDEE7012902D112F4807F7C
:10115800D9E712F0040FD6E7032B0BD13B6903F054
:101168003803182B3FF46FAFFFF77AFA801B40451E
:10117800F4D9E1E7012B10D13B6903F03803082BC0
:101188003FF461AFFFF76CFA801B4045F4D9D3E711
:10119800FFF766FA801B4045CED83B6913F0380F3D
:1011A800F6D150E7136823F007032B431360136845
:1011B80003F007039D428ED14CE7054920698B69EE
:1011C80023F0700303438B6148E700BF00200052FF
:1011D80000440258E22E00080800002008B500F07C
:1011E800D5FE084B01229B6992FAA2F2B2FA82F26A
:1011F80003F00F03D340044AD35CD840034B186074
:1012080008BD00BF00440258E22E00080C00002070
:1012180008B5FFF7E3FF074B1022DB6992FAA2F249
:10122800B2FA82F203F07003D340034AD35CD84089
:1012380008BD00BF00440258E22E000808B5FFF7B9
:10124800CDFF074B4FF48072DB6992FAA2F2B2FA33
:1012580082F203F4E063D340024AD35CD84008BD6D
:1012680000440258E22E0008F8B5314C06460D46F7
:10127800A36A03F00303032B58D0236823F0806389
:101288002360FFF7EDF9074623681A013AD4A36AE9
:10129800326823F47C3343EA0233A362B368F2680A
:1012A800013B013A5B0212049BB202F4FE021343B3
:1012B8007268013AC2F3080213433269013A12060E
:1012C80002F0FE421343A363E36A726923F0C0038A
:1012D8001343E362E36AB26923F020031343E36232
:1012E800E36AB5B943F40023E362114C236843F081
:1012F80080632360FFF7B4F9054623681B010FD507
:101308000020F8BDFFF7ACF9C01B0228BCD90320A8
:10131800F8BD012D0CBF43F4801343F40013E3E739
:10132800FFF79EF9401B0228E7D9F0E70120F8BD36
:1013380000440258F8B5314C06460D46A36A03F03E
:101348000303032B58D0236823F080532360FFF74F
:1013580087F9074623689A003AD4A36A326823F0CB
:101368007C7343EA0253A362B368F268013B013A13
:101378005B0212049BB202F4FE0213437268013A44
:10138800C2F3080213433269013A120602F0FE4220
:1013980013432364E36A726923F440631343E362EB
:1013A800E36AB26923F400731343E362E36AB5B9ED
:1013B80043F48003E362114C236843F080532360B5
:1013C800FFF74EF9054623689B000FD50020F8BDAE
:1013D800FFF746F9C01B0228BCD90320F8BD012D30
:1013E8000CBF43F4000343F08073E3E7FFF738F9D9
:1013F800401B0228E7D9F0E70120F8BD0044025855
:101408002DE9F8430468054614F0006014D06B6EAB
:10141800B3F5801F18D002D883B101241BE0B3F5BF
:10142800001F23D0B3F5401FF7D1A64A696E136D8C
:1014380023F440130B43136500240CE0A14AD36A3C
:1014480043F40033D362F0E70221281DFFF70CFFB5
:1014580004460028E9D02B68DE053CD56B6D042BCB
:1014680034D8DFE803F009102D0E0E00022105F133
:101478002400FFF75FFFEBE7924AD36A43F4003397
:10148800D362264604E00021281DFFF7EDFE06463C
:10149800EEB98C4A696D136D23F007030B4313658E
:1014A8002B68980527D5AB6D802B43D015D8002B1A
:1014B80034D0402B38D0012644EA0600C4B21AE0E2
:1014C800002105F12400FFF735FFE0E7012644EA93
:1014D8000600C4B2E4E72646E2E7C02B02D0B3F523
:1014E800807FE8D1002EE7D1764AA96D136D23F4E9
:1014F800E0730B4313652B68590531D5D5F8A43033
:10150800B3F5800F4BD01BD8002B3CD0B3F5001F90
:101518003FD0012644EA0600C4B221E0694AD36AF2
:1015280043F40033D362DDE70021281DFFF79CFE5A
:101538000646D7E7002105F12400FFF7FBFEF7E791
:10154800B3F5C00F02D0B3F5000FE2D1002EE1D100
:101558005C4AD5F8A410936D23F460030B4393659C
:101568002B681A0531D5D5F8A830B3F1007F45D0DE
:101578001BD8002B36D0B3F1807F39D0012644EA3E
:101588000600C4B221E04F4AD36A43F40033D36261
:10159800DCE70021281DFFF767FE0646D6E7002195
:1015A80005F12400FFF7C6FEF7E7B3F1407F02D04C
:1015B800B3F1806FE2D1002EE1D1424AD5F8A810EC
:1015C800936D23F0E0630B4393652B689B0128D54B
:1015D800AB6C102B37D017D8D3B1012644EA0600DC
:1015E800C4B21EE0374AD36A43F40033D362E2E759
:1015F8000021281DFFF738FE0646DCE7002105F12B
:101608002400FFF797FEF7E7202B22D0302BE4D1F8
:10161800002EE3D12B4AA96CD36C23F030030B4383
:10162800D3642B68DF0429D5EB6DB3F5005F42D096
:1016380015D8002B33D0B3F5805F36D0012644EAA5
:101648000600C4B21AE01F4AD36A43F40033D362D7
:10165800DEE70221281DFFF707FE0646D8E7B3F5A7
:10166800405F02D0B3F5804FE8D1002EE7D1154A8C
:10167800E96D136D23F4E0430B4313652B6898045D
:1016880034D52B6EB3F5003F48D01DD82BB3B3F536
:10169800803F3DD0012644EA0600C4B226E0094A4C
:1016A800D36A43F40033D362DFE70021281DFFF734
:1016B800DBFD0646D9E7002105F12400FFF73AFED5
:1016C800F7E700BF00440258B3F5802F05D0B3F503
:1016D800A02F02D0B3F5403FDCD1002EDBD1A04AC9
:1016E800296E136D23F4E0230B4313652B6859040B
:1016F8002DD5D5F8AC30B3F1005F4CD014D8E3B198
:10170800B3F1805F41D0012644EA0600C4B21EE06E
:101718000121281DFFF7A8FD0646DEE7012105F196
:101728002400FFF707FEF7E7B3F1804F05D0B3F1C8
:10173800A04F02D0B3F1405FE5D1002EE4D1884A32
:10174800D5F8AC10936D23F0E0430B4393652B68F9
:101758001A040FD5EB6EB3F1805F22D0B3F1005FAE
:1017680025D053BB56BB7E4AE96E136D23F0405318
:101778000B4313652B68DB0132D56B6C032B00F22E
:101788008A80DFE803F0241F82240121281DFFF747
:101798006BFD0646D1E7012105F12400FFF7CAFDDC
:1017A800F7E76F4AD36A43F40033D362DAE70121DB
:1017B800281DFFF759FD0646D4E7012644EA06002E
:1017C800C4B2D7E7664AD36A43F40033D362002E23
:1017D80062D1634A696CD36C23F003030B43D3646F
:1017E8002B685F0242D55F4F3B6843F480733B60D0
:1017F800FEF736FF80463B68D80551D5002E56D1F6
:10180800574BD5F8B0001A6F424012F4407F0BD006
:101818001A6F196F22F4407241F480311967196FF9
:1018280021F4803119671A67B0F5807F08D1FEF777
:1018380017FF4B4F804641F288393B6F99073AD5DD
:10184800D5F8B030464903F44072B2F5407F3DD137
:101858000869454A20F47C5002EA131202430A61DF
:10186800C3F30B033E4A116F0B4313672B68DA0768
:101878003FD5AB6F102B4DD02CD88BB3082B43D052
:10188800012644EA0600C4B233E00221281DFFF70E
:10189800EBFC06469BE7012644EA0600C4B29FE734
:1018A800FEF7DEFEA0EB08006428A4D9032644EA6C
:1018B8000600C4B2DAE7FEF7D3FEA0EB08004845FD
:1018C800BBD944F003000326C4B2CFE70A6922F467
:1018D8007C52C4E7202B03D0282B01D0182BCFD162
:1018E800002ECED11E4AA96F536D23F038030B4347
:1018F80053652B689B0720D56B6F052B36D8DFE81F
:1019080003F0140F281414140121281DFFF7ACFC50
:101918000646E5E7012105F12400FFF70BFDF7E78F
:101928000121281DFFF7A0FC064606BB0C4A696F7B
:10193800536D23F007030B4353652B685F0728D5C6
:10194800D5F89030052B3CD8DFE803F01A15351A86
:101958001A1A012105F12400FFF7ECFCE4E700BFA7
:101968000044025800480258CFFFFF00012644EA0D
:101978000600C4B2E1E70121281DFFF775FC064601
:1019880006BB994AD5F89010936D23F007030B43D3
:1019980093652B6898062CD5D5F88C30B3F1005F89
:1019A8003FD013D8DBB1B3F1805F34D0012644EACD
:1019B8000600C4B21DE0012105F12400FFF7BAFCBE
:1019C800DDE7012644EA0600C4B2E2E7B3F1804F3E
:1019D80005D0B3F1A04F02D0B3F1405FE6D1002E9D
:1019E800E5D1814AD5F88C10536D23F0E0430B43C1
:1019F80053652B6859062DD5D5F89830B3F5006F87
:101A080042D014D8E3B1B3F5806F37D0012644EA49
:101A18000600C4B21EE00021281DFFF725FC06467B
:101A2800DDE7022105F12400FFF784FCF7E7B3F5B1
:101A3800805F05D0B3F5A05F02D0B3F5406FE5D164
:101A4800002EE4D1684AD5F89810936D23F4E0533A
:101A58000B4393652B681A062FD5D5F89C30B3F540
:101A6800804F00F0958015D8EBB1B3F5005F00F01A
:101A78008980012644EA0600C4B21EE00021281D20
:101A8800FFF7F2FB0646DBE7022105F12400FFF72A
:101A980051FCF7E7B3F5004F05D0B3F5204F02D05E
:101AA800B3F5C04FE5D1002EE4D14F4AD5F89C10CC
:101AB800936D23F460430B4393652B681B070BD589
:101AC800D5F88010B1F5805F68D1022105F12400B6
:101AD800FFF730FC0443E4B22B68DF060BD5D5F8DA
:101AE8009410B1F5807F60D1022105F12400FFF741
:101AF80021FC0443E4B22B68180317D5D5F8A010CD
:101B0800B1F5803F58D0B1F5003F05D0002959D133
:101B1800281DFFF7A9FB0646002E54D1324AD5F8F6
:101B2800A010936D23F440330B4393652B6859033E
:101B380019D5D5F88430B3F5001F48D0B3F5401F48
:101B480007D0B3F5801F49D1274AD36A43F400333D
:101B5800D362002E43D1244AD5F88410536D23F460
:101B680040130B4353652B68DA034DD5EB6C002B00
:101B78003CD0B3F5803F00F09980012644EA060086
:101B8800C4B241E00021281DFFF76EFB06468AE734
:101B9800022105F12400FFF7CDFBF7E7124A536D48
:101BA80023F440530B43536596E70F4A936D23F490
:101BB80040730B4393659EE7022105F12400FFF76C
:101BC800B9FBA8E7012644EA0600C4B2AEE7012142
:101BD80005F12400FFF7AEFB0646BAE7012644EA02
:101BE8000600C4B2BFE700BF004402583B4AD36AAC
:101BF80043F40033D362002EC0D1384AE96CD36C69
:101C080023F480330B43D3642B689B0006D5022151
:101C180005F12400FFF78EFB0443E4B22B689F0311
:101C28000ED5E96FB1F5807F51D045D8002949D14B
:101C3800002E48D12948426D22F440720A43426579
:101C4800DE0206D52549286F0A6D22F000420243BC
:101C58000A65D80007D52149D5F8B4000A6922F4E5
:101C6800804202430A61990206D51C49A86E0A6D92
:101C780022F0807202430A655A0009D5174A116991
:101C880021F4004111611169D5F8B80001431161CF
:101C9800002B06DA114A296DD36C23F040530B430D
:101CA800D364201C18BF0120BDE8F8830221281D39
:101CB800FFF7DAFA06469EE7B1F5007FB8D0B1F52E
:101CC800407FB5D0012644EA0600C4B2B8E703480D
:101CD800C26A42F40032C262AAE700BF0044025856
:101CE80008B5FFF77BFA074B10221B6A92FAA2F29B
:101CF800B2FA82F203F07003D340034AD35CD840AF
:101D080008BD00BF00440258E22E000830B54A4C16
:101D1800DFED4A5AA56AA16AE36AE26BC1F30531AD
:101D280003F01003C2F3CC02534307EE903A05F0D8
:101D38000303012BB8EEE76AF7EE007A02D00ED360
:101D4800022B68D0A36B3E4AC3F3080307EE103A90
:101D5800B8EEC77AA6EE257A37EE277A67E02368C9
:101D6800384A13F0200F42D02568A36BC5F3C1048D
:101D7800C3F30803E240B2FBF1F207EE102AF8EED3
:101D8800C76A07EE103AB8EEC77AA6EE257A37EE9C
:101D9800277A66EE877A284A936BC3F34623013382
:101DA80007EE103AB8EEC77AC7EE876AFCEEE66A25
:101DB800C0ED006A936BC3F30643013307EE103A94
:101DC800B8EEC77AC7EE876AFCEEE66AC0ED016A2C
:101DD800936BC3F30663013307EE103AB8EEC77A84
:101DE800C7EE876AFCEEE66AC0ED026A30BDA36BF7
:101DF800C3F3080307EE103AB8EEC77AB2FBF1F363
:101E0800A6EE257A37EE277A07EE903AF8EEE77ACB
:101E180067EE277ABFE7A36B0B4AC3F3080307EE05
:101E2800103AB8EEC77AA6EE257A37EE277AB2FBD3
:101E3800F1F207EE902AE9E7004402580000003961
:101E480000093D000090D00300127A0030B54A4CDA
:101E5800DFED4A5AA56AA16AE36A626CC1F30551CB
:101E680003F48073C2F3CC02534307EE903A05F0B3
:101E78000303012BB8EEE76AF7EE007A02D00ED31F
:101E8800022B68D0236C3E4AC3F3080307EE103ACE
:101E9800B8EEC77AA6EE257A37EE277A67E0236888
:101EA800384A13F0200F42D02568236CC5F3C104CB
:101EB800C3F30803E240B2FBF1F207EE102AF8EE92
:101EC800C76A07EE103AB8EEC77AA6EE257A37EE5B
:101ED800277A66EE877A284A136CC3F346230133C0
:101EE80007EE103AB8EEC77AC7EE876AFCEEE66AE4
:101EF800C0ED006A136CC3F30643013307EE103AD2
:101F0800B8EEC77AC7EE876AFCEEE66AC0ED016AEA
:101F1800136CC3F30663013307EE103AB8EEC77AC1
:101F2800C7EE876AFCEEE66AC0ED026A30BD236C34
:101F3800C3F3080307EE103AB8EEC77AB2FBF1F321
:101F4800A6EE257A37EE277A07EE903AF8EEE77A8A
:101F580067EE277ABFE7236C0B4AC3F3080307EE43
:101F6800103AB8EEC77AA6EE257A37EE277AB2FB92
:101F7800F1F207EE902AE9E7004402580000003920
:101F880000093D000090D00300127A0008B5FEF762
:101F9800AFFF084B4FF480729B6992FAA2F2B2FA33
:101FA80082F203F47063D340034AD35CD840034BF6
:101FB800186008BD00440258E22E000808000020FE
:101FC8002DE9F0430446816A056887B0A368226951
:101FD8000B432E68C069134362691343B34A034332
:101FE80032401343E2682B606B6823F44053134379
:101FF800A2696B60AE4B9D421CBF236A1A43B1F1C4
:10200800005F02BFE36A216B0B43616A08BF1A4392
:10201800AB6823F06E4323F430631343AB60EB6A81
:1020280023F00F030B43EB62A24B9D421CD1A24B42
:102038005B6D03F03803282B00F25E829F4AB0F5EF
:10204800004FD35C40F0E681082B00F0BA8100F223
:102058006E81012B00F09781C0F07D81042B00F088
:1020680095810123002286E1954B9D4208D1924B30
:102078005B6D03F00703052B00F23E82914ADEE711
:10208800914B9D4208D18C4B5B6D03F00703052BE8
:1020980000F232828D4AD2E78D4B9D4208D1864BA1
:1020A8005B6D03F00703052B00F22682894AC6E719
:1020B800894B9D4208D1804B5B6D03F00703052BCC
:1020C80000F21A82854ABAE7854B9D4208D17A4BBD
:1020D8005B6D03F03803282B00F20E82814AAEE7CD
:1020E800814B9D4208D1744B5B6D03F00703052BB0
:1020F80000F202827D4AA2E77D4B9D4208D16E4BD9
:102108005B6D03F00703052B00F2F681794A96E729
:10211800674B9D4240F0F08103F50E339A6D02F053
:102128000702052A01D9012380E073498D5C082D37
:102138002FD008D8022D21D0042DF4D16846FFF7FE
:10214800E5FD01981CE0202D05D0402D1CD0102D58
:10215800E9D16A4801E04FF40040666806EB46039F
:102168008342E0D8B0EB063FDDD8082D78D01AD8E6
:10217800022D38D0042D5DD001234FE0FFF7B0FDCC
:102188000028EAD1002351E003A8FFF75FFE049876
:10219800F6E71A685A4812F0200FDED01B68C3F31E
:1021A800C103D840D9E7202D00F0B080402D4CD095
:1021B800102DE1D1534B0021626A504833F81220A8
:1021C8000023FEF785F832464FEA012900234FEA3B
:1021D800002849EA1069700818EB000549F1000663
:1021E8002846314617E0FFF77BFD464B626A656873
:1021F80033F8122000230021FEF76AF82A460F025E
:102208000023060247EA1067680816EB000847F142
:10221800000940464946FEF75BF80023A0F54071E7
:10222800394A91423FF67FAF2268D060184607B01E
:10223800BDE8F0836846FFF769FD324B626A65685E
:1022480033F8122000230198D5E703A8FFF7FEFD15
:102258002C4B626A656833F8122000230498CAE799
:1022680015497708626A0D68264B15F0200517D0C6
:1022780009682348C1F3C10133F812200023C8407C
:102288000021FEF725F832464FEA012900234FEADC
:10229800002849EA106918EB070049F10001BAE77C
:1022A80033F8122000231648EAE700BFF369FFCF8E
:1022B800000C00580010014000440258942E0008F9
:1022C80000440040BD2E000800480040BD2E000814
:1022D800004C0040BD2E000800500040BD2E0008F4
:1022E80000140140942E000800780040BD2E00081C
:1022F800007C0040BD2E0008C32E000800093D00E8
:102308000090D003CA2E0008FFFC0F00626A4FF449
:1023180000457C4B7008002133F8123032464FF4E8
:102328008076B5FBF3F50023E5FB060173E7202B68
:1023380068D0402B3BD0102B7FF493AE714B724A80
:1023480033F811306068B2FBF3F3420802EB430242
:10235800B2FBF0F20DE0FEF75BFF616A694A636861
:1023680032F81120B0FBF2F05A0802EB4002B2FB3F
:10237800F3F292B2002322F00F01C2F34202206866
:102388000A43C26052E7FEF759FFE6E76846FFF7DF
:10239800BDFC5C4B626A616833F81220019BB3FB99
:1023A800F2F34A0802EB4302B2FBF1F2E1E703A8B9
:1023B800FFF74CFD534B626A616833F81220049BA7
:1023C800EDE7524A52481368656813F020034D4EF2
:1023D8000DD01268C2F3C102D04036F81120B0FB0C
:1023E800F2F06A0802EB4002B2FBF5F2C1E736F8F8
:1023F8001120B0FBF2F06A0802EB4002B2FBF5F2E2
:1024080092B2B8E73F4B656833F81130B0FBF3F090
:1024180080B2E6E7082B46D018D8012B35D024D354
:10242800042B7FF480AE6846FFF770FC354B606A7A
:1024380094E8060033F81000019BB3FBF0F303EBBC
:102448005203B3FBF2F39BB2CB609BE6202B4CD03C
:10245800402B1DD0102B7FF466AE2A4B626833F8F0
:102468001110294BB3FBF1F308E0FEF7D1FE616AC6
:10247800244B626833F81130B0FBF3F303EB5203DB
:10248800B3FBF2F39BB2EB607CE6FEF7D7FEEEE718
:1024980003A8FFF7DBFC1B4B606A94E8060033F8DF
:1024A8001000049BC9E7194E60683368184A13F096
:1024B8002003144C0ED03368C3F3C103DA4034F858
:1024C8001130B2FBF3F202EB5002B2FBF0F292B21F
:1024D800EA6057E634F81110B2FBF1F202EB500251
:1024E800B2FBF0F292B2EA60A0E6064B626833F8FB
:1024F80011104FF40043B5E7B0F5004F7FF413AE69
:10250800AFE500BFCA2E000800093D00004402588C
:102518000090D003436BDA0710B506D50168846BC9
:102528004A6822F4003222434A609C0706D50168B3
:10253800C46B4A6822F4803222434A60590706D5A0
:102548000168046C4A6822F4802222434A601A0710
:1025580006D50168446C4A6822F4004222434A6066
:10256800DC0606D50168846C8A6822F4805222430E
:102578008A60990606D50168C46C8A6822F40052FC
:1025880022438A605A0610D50168046D4A68B4F57A
:10259800801F22F4801242EA04024A6005D14A6888
:1025A800446D22F4C00222434A601B0606D5026825
:1025B800816D536823F400230B43536010BD2DE94C
:1025C800F041069D04460F46164698462168CA699A
:1025D80037EA02030CBF01220022B24202D00020D7
:1025E800BDE8F0816B1CF2D09DB9236803201A68FE
:1025F80022F4D0721A609A6822F001029A602023AD
:1026080084F8793084F87A30002384F87830BDE88B
:10261800F081FEF725F8A0EB08008542D6D2E4E762
:1026280073B500260446C667FEF71AF82368054600
:102638001B681A0717D423681B685B070AD56FF055
:102648007E4300224FF48001204600932B46FFF77B
:10265800B6FFA0B92023002084F8793084F87800E8
:1026680084F87A300CE06FF07E4332464FF4001164
:10267800009303462046FFF7A2FF0028DBD0032083
:1026880002B070BD10B5044660B390F8793003F01D
:10269800FF021BB980F8782000F0FCFA2268242396
:1026A800204684F87930136823F001031360FFF79C
:1026B80087FC012816D0636B13B12046FFF72AFF69
:1026C800236820465A6822F490425A609A6822F099
:1026D8002A029A601A6842F00102BDE810401A60A6
:1026E800FFF79EBF012010BD84B038B505AD044684
:1026F80085E80E000A9B012B27D1836B23F48033D6
:102708008363C36823F4840323F04003C360C3686E
:1027180023F44013C360119B012B03D1C36843F416
:102728008013C360204600F013F9089B012B07D1E2
:10273800A36843F00C03A360A36843F02003A360DD
:102748000020BDE8384004B07047C36843F0400338
:10275800C36000F0FDF84FF48033A363E5E78368B6
:1027680023F0010383600020704708B5C36801297E
:1027780023F0C043C36008D1C36843F00053C3606B
:102788003220FDF773FF002008BD0029F8D1C36887
:1027980043F08043C360F3E784B02DE9F041044679
:1027A80007A8884680E80E00A36B119E43F4001327
:1027B8000A9FA3635EB9A36B23F40013A363236882
:1027C80043F040032360236843F080032360002321
:1027D80004F50065C4F8003ED4F80038C4F80038A1
:1027E8000C9B012B58D1099919B9204600F09CF887
:1027F80003E01946204600F097F81021204600F023
:1028080071F8204600F080F800234FF0FF324FF0B7
:1028180090402B6119466B614FF0FF0EAA6104F5D9
:102828001062EB61434539D1002104F530624FF065
:10283800904E4FF0FF0C08468B423DD12B69012F7B
:1028480023F480732B6106D1234B2B63234B2A6B14
:1028580013432B632B6B0023A3616FF080436361E9
:102868001FB9A36943F01003A361A2691C4B13436A
:10287800A3610D9B1BB1A36943F00803A361012E5B
:1028880005D1A36943F0804343F00403A36100200A
:10289800BDE8F04104B070470321A6E7D2F800C0B4
:1028A800BCF1000F06DA106011610133C2F808E0CC
:1028B8002032B7E71160F7E7D2F80080B8F1000FCF
:1028C80007DAC2F800E010610131C2F808C020320E
:1028D800B2E71060F7E700BF000400020300010838
:1028E80000383C808901074A41F020010161013A22
:1028F80005D0036913F02003F9D118467047032067
:10290800704700BF410D03001023064A0361013AD6
:1029180005D0036913F01003F9D118467047032056
:10292800704700BF410D0300D0F800381943C0F8C4
:1029380000180020704708B5D0F8043843F00203A7
:10294800C0F804380320FDF791FE002008BD000000
:102958000A4B013B01D1032070470269002AF8DACB
:102968000369064A43F001030361013AF3D003699E
:1029780013F00103F9D11846704700BF410D030059
:10298800F0B58DB014220021404F07A8404D00F04B
:1029980069FA404B38464FF48141D3F8E0200024CF
:1029A800012642F00402C3F8E020D3F8E02002F048
:1029B80004020192019AD3F8E02042F08002C3F8A1
:1029C800E020D3F8E02002F080020292029AD3F8C5
:1029D800E02042F00102C3F8E020D3F8E02002F042
:1029E80001020392039AD3F8E02042F00202C3F8EE
:1029F800E020D3F8E02002F002020492049AD3F80F
:102A0800E02042F00802C3F8E020D3F8E02002F00A
:102A180008020592059AD3F8E02042F04002C3F874
:102A2800E0200022D3F8E03003F040030693069B31
:102A3800FDF778FF002228464021FDF773FF4FF489
:102A4800005307A914480793144B09940893FDF7FA
:102A58007FFE4FF4814307A93846089607930994E7
:102A68000A94FDF775FE402307A9284608960793A0
:102A780009940A94FDF76CFE802307A92846089458
:102A880007930994FDF764FE0DB0F0BD00040258E9
:102A9800001802580044025800080258000011119A
:102AA80030B5CDB04C2200210AA800F0DBF9202275
:102AB800002102A800F0D6F9BC2200211DA800F0D0
:102AC800D1F9224BDA6822F00402DA60002201927E
:102AD8009A6922F4404242F480429A619A6902F467
:102AE80040420192019A9A699204FCD54FF48033CE
:102AF8001822002401250B93022316920422139313
:102B08000AA81493179319930C2318921A930A95E9
:102B180015951B941C94FDF7A1FF3F23294602A895
:102B2800049402930323059403930694079408944A
:102B38000994FEF779FA064B1DA83A941D934FF4B1
:102B480080133E93FEF75CFC4DB030BD0048025840
:102B580002000400154C08B5FDF766FDFFF7A0FF5D
:102B6800FFF70EFF00F074F800F0CCF820460022C2
:102B78008021FDF7D7FE01224FF480412046FDF762
:102B8800D1FE4FF47A70FDF771FD204601228021B5
:102B9800FDF7C8FE204600224FF48041FDF7C2FE33
:102BA8004FF47A70FDF762FDE0E700BF00040258B9
:102BB80070470000074B82B0D3F8F42042F00202BD
:102BC800C3F8F420D3F8F43003F002030193019B17
:102BD80002B07047004402587047FEE7FEE7FEE780
:102BE800FEE7704770477047FDF72EBD144915483A
:102BF800D1F8883043F4700310B5C1F88830124B0F
:102C08001A6842F001021A6000221A611C6820400A
:102C180018609A61DA611A629A62DA621A635A6310
:102C28009A63DA631A645A64186820F4802018607A
:102C38001A660122054B1A604FF000638B6010BDC5
:102C480000ED00E07FEDF6EA0044025808810051EB
:102C580008B50E484FF4E13E0D4B0C2280E80840C1
:102C6800002342618360C36003618361C3610362BF
:102C780043628362C36203634363FFF703FD18B1D2
:102C8800BDE80840FFF794BF08BD00BF3000002032
:102C98000048004010B588B004461422002103A85B
:102CA80000F0E0F82268144B9A4223D1134B03A991
:102CB8001348D3F8E82042F48022C3F8E820D3F878
:102CC800E82002F480220192019AD3F8E02042F031
:102CD8000802C3F8E020D3F8E03003F008030293B9
:102CE800029B4FF440730393022304930723079333
:102CF800FDF72EFD08B010BD004800400044025802
:102D0800000C025808B50D4809230D4A80E80C004C
:102D180002220023C2608261012203614361C26111
:102D2800036283624262C2620363FDF700FE18B168
:102D3800BDE80840FFF73CBF08BD00BFB000002059
:102D48000000084010B588B004461422002103A8EA
:102D580000F088F82268194B9A422DD1184C03A923
:102D68001848D4F8E03043F00103C4F8E030D4F850
:102D7800E03003F001030193019B4FF4E853039300
:102D8800022304930A230793FDF7E2FC4FF4007330
:102D980003A90C480393002304930593FDF7D8FC7B
:102DA800D4F8D83043F00063C4F8D830D4F8D83019
:102DB80003F000630293029B08B010BD00000840B6
:102DC8000044025800000258DFF834D0002103E024
:102DD8000C4B5B58435004310B480C4B42189A4239
:102DE800F6D30B4A02E0002342F8043B094B9A420F
:102DF800F9D3FFF7FBFE00F011F8FFF7ABFE7047C1
:102E080000000220042F000800000020100000200D
:102E180010000020B0040020FEE7000070B50D4E41
:102E28000D4CA41BA4100025A54209D10B4E0C4C37
:102E380000F020F8A41BA4100025A54205D170BD00
:102E480056F8253098470135EEE756F8253098476B
:102E58000135F2E7FC2E0008FC2E0008FC2E0008C5
:102E6800002F000802440346934200D1704703F83C
:102E7800011BF9E7F8B500BFF8BC08BC9E467047CF
:0C2E8800F8B500BFF8BC08BC9E467047BF
:102E94000180808080808080048080808080808029
:102EA40040808080808080800880808080808080D6
:102EB40010808080808080802000044008102002E0
:102EC400044008102000010002000400060008006D
:102ED4000A000C00100020004000800000010000E7
:102EE40000000102030401020304060708090000AC
:082EF40014D4FF7F010000006F
:042EFC00BD0200080B
:042F0000990200082A
:102F040001000000100000000090D0030090D003E6
:0400000508002DD1F1
:00000001FF
